:100000000C9415010C9446010C9446010C94460185
:100010000C9446010C9446010C9446010C94460144
:100020000C9446010C9446010C9446010C94460134
:100030000C9446010C9446010C9446010C94460124
:100040000C9446010C9446010C9446010C94460114
:100050000C9446010C9446010C9446010C944707FD
:100060000C9446010C940A090C94DE090C94460188
:100070000C9446010C9446010C9446010C944601E4
:100080000C9446010C9446010C9446010C944601D4
:100090000C9437090C941D0A0C9446010C944601EB
:1000A0000C9446010C9446010C9446010C944601B4
:1000B0000C9446010C9446010C9446010C944601A4
:1000C0000C9446010C9446010C9446010C9464096E
:1000D0000C945C0A0C9446010C9491090C949B0AB4
:1000E0000C9446010000090A02080B0C0D070603D8
:1000F00004010000000000000000000000000000FB
:1001000000000000000000000000000000000000EF
:1001100011100F00000000000000000000000000AF
:100120000000000000000000000001021020200874
:100130000810204010204080020102010804020142
:1001400001020408102040808040201008040201B1
:10015000800402018040201008040201080402010A
:100160000102040810204080010204081020408091
:1001700005050505070508080808020202020A0A23
:100180000808040404040101010101010101030341
:10019000030303030303040707070C0C0C0C0C0CEC
:1001A0000C0C0202020206060606060606060B0BE9
:1001B0000B0B0B0B0B0B00002200250028002B0063
:1001C0002E003100340002010000050108010B017E
:1001D00000002100240027002A002D0030003300F9
:1001E00001010000040107010A01494E46494E4938
:1001F00054594E414E000020410000C84200401CAE
:100200004620BCBE4CCA1B0E5AAEC59D74CDCCCC8C
:100210003D0AD7233C17B7D13877CC2B329595E6DA
:10022000241FB14F0A00CF035A0B11241FBECFEF7A
:10023000D1E2DEBFCDBF00E00CBF13E0A0E0B2E032
:10024000EEE8FCE200E00BBF02C007900D92A43084
:10025000B107D9F715E0A4E0B3E001C01D92AF3CAF
:10026000B107E1F712E0CAE2D2E000E006C022974F
:100270000109FE010BBF0E944912C632D10780E07E
:100280000807A9F70E94780C0C9445160C940000FE
:100290002BE232E0FC01318320830C94DF03CF9307
:1002A000DF93EC010E944801CE01DF91CF910C94C5
:1002B000F70FCF93DF93EC010E94EC038BE292E007
:1002C00099838883DF91CF910895CF93DF938091B5
:1002D000060390910703892B59F482E090E00E9475
:1002E000F50FEC010E945901D0930703C093060358
:1002F0008091060390910703DF91CF9108950F93AA
:100300001F9397FF07C08B019C010F5F1F4F2F4F5B
:100310003F4F0FC0611571058105910539F08B01C3
:100320009C01015011092109310903C000E010E0CE
:100330009801B801C9011F910F9108954F925F92E2
:100340006F927F928F929F92AF92BF92CF92DF92E5
:10035000EF92FF920F931F93CF93DF93CDB7DEB74A
:1003600028970FB6F894DEBF0FBECDBF7B010E9469
:10037000D5050E94E8059B01AC01C7012D833E8392
:100380004F8358870E94B4052D813E814F81588547
:100390000E94F90F0E94CA102B013C010E94D50552
:1003A0000E94F5059B01AC01C7012D833E834F835D
:1003B00058870E94BF052D813E814F8158850E943C
:1003C000F90F0E94CA104B015C010E94D5050E94E2
:1003D00002069B01AC01C7012D833E834F835887E2
:1003E0000E94CA052D813E814F8158850E94F90FD8
:1003F0000E94CA106B017C0168E072E08AE893E019
:100400000E94D60D2AE030E0B301A2018AE893E011
:100410000E94650E61E172E08AE893E00E94D60DC9
:100420002AE030E0B501A4018AE893E00E94650E5D
:100430006CE172E08AE893E00E94D60D2AE030E099
:10044000B701A6018AE893E00E94B00E14141504C7
:100450001604170414F460E001C061E087E30E9411
:100460001007181419041A041B0414F460E001C0E6
:1004700061E08DE30E9410071C141D041E041F047C
:1004800014F460E001C061E080E30E9410070E9464
:10049000D5050E94E80569837A838B839C83C30119
:1004A000B2010E94FD109B01AC0169817A818B81B0
:1004B0009C810E94FA0F8C016D837E830E94D5057A
:1004C0006D817E81462F572F602F712F0E940F065E
:1004D0000E94D5050E94F50569837A838B839C83EE
:1004E000C501B4010E94FD109B01AC0169817A81B4
:1004F0008B819C810E94FA0F8C016D837E830E9408
:10050000D5056D817E81462F572F602F712F0E9458
:1005100018060E94D5050E94020669837A838B83A0
:100520009C83C701B6010E94FD109B01AC0169814B
:100530007A818B819C810E94FA0F8C016D837E836E
:100540000E94D5056D817E81462F572F602F712F18
:100550000E94210660E086E20E94100760E088E3C6
:100560000E94100760E08EE30E94100749C061E01E
:1005700086E30E94100781149104A104B10421F0C4
:1005800061E08CE30E941007C114D104E104F1047E
:1005900021F061E08EE20E94100765E070E080E0EB
:1005A00090E00E94CD07411451046104710451F0A0
:1005B00060E086E30E941007C301B2010E947F0140
:1005C0002B013C0181149104A104B10451F060E0BD
:1005D0008CE30E941007C501B4010E947F014B010A
:1005E0005C01C114D104E104F10451F060E08EE239
:1005F0000E941007C701B6010E947F016B017C01B8
:10060000411451046104710409F0B1CF81149104C3
:10061000A104B10409F0B4CFC114D104E104F10480
:1006200009F0B7CF0E94D5050E942A0680E090E02D
:1006300028960FB6F894DEBF0FBECDBFDF91CF91E5
:100640001F910F91FF90EF90DF90CF90BF90AF90F0
:100650009F908F907F906F905F904F900895089536
:1006600061E086E30E94D80661E087E30E94D80635
:1006700061E086E20E94D80661E083E00E94D8062D
:1006800061E082E00E94D80661E08CE30E94D80617
:1006900061E08DE30E94D80661E088E30E94D806FD
:1006A00061E08EE00E94D80661E08FE00E94D806EB
:1006B00061E08EE20E94D80661E080E30E94D806E5
:1006C00061E08EE30E94D80661E082E10E94D806D4
:1006D00061E083E10E94D80640E052EC61E070E006
:1006E0008AE893E00C94DA0A0F931F93CF93DF9379
:1006F000CDB7DEB72E970FB6F894DEBF0FBECDBFD5
:100700008AE893E00E945508892BB9F04AE06AE82C
:1007100073E0CE0108960E94CD0F88859985892BBC
:1007200041F08FE293E0892B21F08C859D85892B08
:1007300059F4CE0108960E94850C64E670E080E0D2
:1007400090E00E94CD0720C0BE01685F7F4FCE01C0
:1007500001960E942A0D82E090E00E94F50F8C0124
:10076000BE016F5F7F4F0E94FA04CE0101960E9486
:10077000850CC8010E946305B8018091080390911F
:1007800009030E943804D5CF2E960FB6F894DEBF29
:100790000FBECDBFDF91CF911F910F910895CF93E1
:1007A000DF9382E090E00E94F50FEC010E94FF03CE
:1007B000D0930903C0930803DF91CF91089525E3F7
:1007C00032E0FC0131832083089525E332E0FC010F
:1007D000318320830C94F70F25E332E0FC01318351
:1007E0002083089529E932E0FC01318320830895B4
:1007F00029E932E0FC01318320830C94F70F29E9C9
:1008000032E0FC01318320830895CF93DF93EB0125
:100810006BE372E08AE893E00E94D60D61E070E03D
:10082000209711F060E070E04AE050E08AE893E041
:100830000E94C40E6CE472E08AE893E00E94F50D19
:10084000CE010E94AF0561E070E0019611F060E01A
:1008500070E04AE050E08AE893E0DF91CF910C9499
:10086000C40E672B11F40C94650180E090E00895AC
:100870000F931F93CF93DF938C01EB01209719F116
:10088000CB010E94AF050196A1F41DC066E772E09E
:100890008AE893E00E94F50D1AC0DC01ED91FC910D
:1008A0000480F581E02DBE01DF91CF911F910F9162
:1008B0001994CE010E94AF05BC01C8010E94310409
:1008C000009759F7E3CFBE01C8010E9405048FEFDE
:1008D0009FEFDF91CF911F910F910895CF93DF93F9
:1008E000EB016DE972E0CE010E947F14009709F4DC
:1008F00045C060EA72E0CE010E947F140097F1F1DA
:1009000064EA72E0CE010E947F140097D1F167EA99
:1009100072E0CE010E947F14009799F16BEA72E0B9
:10092000CE010E947F14009779F16EEA72E0CE0149
:100930000E947F14009741F162EB72E0CE010E94A9
:100940007F14009721F165EB72E0CE010E947F14C5
:100950000097E9F069EB72E0CE010E947F140097E6
:1009600019F424E030E015C06CEB72E0CE010E9477
:100970007F140097B1F32FEF3FEF0BC020E030E082
:1009800008C021E030E005C022E030E002C023E0F2
:1009900030E0C901DF91CF910895CB01FB012081A7
:1009A000283561F401960E94661460930A037093DF
:1009B0000B0380930C0390930D030895293561F484
:1009C00001960E94661460930E0370930F03809348
:1009D00010039093110308952A3559F401960E944B
:1009E000661460931203709313038093140390931F
:1009F000150308958F929F92AF92BF92CF92DF928C
:100A0000EF92FF920F931F93CF93DF93CDB7DEB793
:100A10006C01CB01EDB6FEB69EB6ADB6BEB6FB011F
:100A2000448155812DB73EB7241B350B0FB6F89482
:100A30003EBF0FBE2DBF0DB71EB70F5F1F4F20E08B
:100A400030E0B8010E94740D60EC72E0C8010E94B1
:100A500072148C01FC018081873449F4B801C6010D
:100A60000E946E0490930702809306020EC03E2DF2
:100A7000292D10C0B801C6010E94CD0462EC72E0BD
:100A800080E090E00E9472148C010115110591F72D
:100A90003A2D2B2D832F922F0FB6F8949EBF0FBEA9
:100AA0008DBF0FB6F894FEBE0FBEEDBEDF91CF91A5
:100AB0001F910F91FF90EF90DF90CF90BF90AF907C
:100AC0009F908F90089566EC72E08AE893E00E9410
:100AD000D60D60910602709107024AE050E08AE864
:100AE00093E00E94C40E6EE072E08AE893E00E94F8
:100AF000D60D40910A0350910B0360910C03709145
:100B00000D0322E030E08AE893E00E94870F6AED4F
:100B100072E08AE893E00E94D60D40910E03509156
:100B20000F03609110037091110322E030E08AE816
:100B300093E00E94870F6FED72E08AE893E00E94D5
:100B4000D60D4091120350911303609114037091DC
:100B5000150322E030E08AE893E00C94890F80913D
:100B60000602909107020895EAE0F3E05081418186
:100B700032812381652F742F832F922F0895EEE009
:100B8000F3E05081418132812381652F742F832FBF
:100B9000922F0895E2E1F3E0508141813281238177
:100BA000652F742F832F922F0895809116039091B3
:100BB0001703892B41F481E090E00E94F50F909398
:100BC00017038093160380911603909117030895DD
:100BD000509118034091190330911A0320911B037F
:100BE000652F742F832F922F089550911C034091ED
:100BF0001D0330911E0320911F03652F742F832F37
:100C0000922F0895509120034091210330912203A7
:100C100020912303652F742F832F922F08954093E3
:100C200018035093190360931A0370931B030895DC
:100C300040931C0350931D0360931E0370931F0386
:100C400008954093200350932103609322037093EF
:100C50002303089564EE72E08AE893E00E94F50DA4
:100C60006EE072E08AE893E00E94D60D409118038E
:100C70005091190360911A0370911B0322E030E038
:100C80008AE893E00E94870F6AED72E08AE893E0B9
:100C90000E94D60D40911C0350911D0360911E03CC
:100CA00070911F0322E030E08AE893E00E94870FF2
:100CB0006FED72E08AE893E00E94D60D4091200328
:100CC00050912103609122037091230322E030E0D0
:100CD0008AE893E00C94890F893009F443C088F4C2
:100CE000843029F138F4823059F1E8F4813009F088
:100CF0005EC023C0873061F188F5863009F057C0A7
:100D000023C08D3009F440C020F48B30A9F1C0F528
:100D10002DC0803109F442C0813109F443C08F30C5
:100D200009F045C037C0809180008F7703C0809163
:100D300080008F7D80938000089584B58F7702C0F6
:100D400084B58F7D84BD08958091B0008F7703C0F6
:100D50008091B0008F7D8093B000089580919000C5
:100D60008F7707C0809190008F7D03C080919000A5
:100D7000877F8093900008958091A0008F7707C0AF
:100D80008091A0008F7D03C08091A000877F809319
:100D9000A0000895809120018F7707C080912001E5
:100DA0008F7D03C080912001877F8093200108956B
:100DB000CF93DF9390E0FC01E65DFE4F4491FC0190
:100DC000E059FE4F8491882341F190E0880F991FEC
:100DD000FC01E053FE4F25913491D9018A549E4F76
:100DE000FC0185919491C82FD92F9FB7F8948C91CD
:100DF000611106C0409584238C938881842308C0A8
:100E0000623041F4242F209582238C938881842B97
:100E1000888302C0842B8C939FBFDF91CF9108956C
:100E20000F931F93CF93DF931F92CDB7DEB7282F79
:100E300030E0F901EC51FF4F8491F901E65DFE4F7E
:100E40001491F901E059FE4F04910023D1F0882359
:100E500021F069830E946C066981E02FF0E0EE0FBB
:100E6000FF1FEA54FE4F85919491DC019FB7F894DF
:100E70008C91611103C01095812301C0812B8C934B
:100E80009FBF0F90DF91CF911F910F9108951F92F7
:100E90000F920FB60F9211242F933F938F939F932E
:100EA000AF93BF938091240390912503A0912603D3
:100EB000B091270330912C03232F2D5F2D3720F481
:100EC0000196A11DB11D05C0232F2A570296A11D11
:100ED000B11D20932C038093240390932503A093AA
:100EE0002603B09327038091280390912903A091B2
:100EF0002A03B0912B030196A11DB11D80932803F5
:100F000090932903A0932A03B0932B03BF91AF9131
:100F10009F918F913F912F910F900FBE0F901F9037
:100F200018950F931F938FB7F89400912403109195
:100F3000250320912603309127038FBFB801C901F3
:100F40001F910F9108950F931F939FB7F8940091ED
:100F500028031091290320912A0330912B0386B591
:100F6000A89B06C08F3F21F00F5F1F4F2F4F3F4FB1
:100F70009FBF322F212F102F0027080F111D211D79
:100F8000311D42E0000F111F221F331F4A95D1F778
:100F9000B801C9011F910F910895CF92DF92EF928E
:100FA000FF92CF93DF936B017C010E94A307EB01BB
:100FB0000EC00E94A3076C1B7D0B683E734038F087
:100FC00081E0C81AD108E108F108C851DC4FC1140A
:100FD000D104E104F10469F7DF91CF91FF90EF9024
:100FE000DF90CF900895789484B5826084BD84B5F5
:100FF000816084BD85B5826085BD85B5816085BD14
:10100000EEE6F0E0808181608083E1E8F0E010822C
:10101000808182608083808181608083E0E8F0E06D
:10102000808181608083E1EBF0E080818460808357
:10103000E0EBF0E0808181608083E1E9F0E0808195
:1010400082608083808181608083E0E9F0E080813C
:1010500081608083E1EAF0E080818260808380812A
:1010600081608083E0EAF0E0808181608083E1E25A
:10107000F1E0808182608083808181608083E0E212
:10108000F1E0808181608083EAE7F0E08081846024
:101090008083808182608083808181608083808181
:1010A000806880831092C1000895FC018485958535
:1010B000FC01E05CFF4F20813181FC01EE5BFF4FC2
:1010C00080819181281B390B2F733327C901089523
:1010D000FC0184859585FC01E05CFF4F40815181D6
:1010E000FC01EE5BFF4F208131814217530741F035
:1010F0000190F081E02DE80FF91F208130E002C05F
:101100002FEF3FEFC9010895FC0184859585FC010F
:10111000E05CFF4F40815181FC01EE5BFF4F20817D
:1011200031814217530781F0A081B181A80FB91F07
:101130008C91208131812F5F3F4F2F733327318373
:101140002083282F30E002C02FEF3FEFC901089520
:10115000FC0186859785FC01E05CFF4FDC01AE5BFE
:10116000BF4F408151812D913C91119742175307F8
:10117000C1F70895CF93DF93FC0186859785DC0145
:10118000A05CBF4F2D913C9111972F5F3F4F2F7364
:101190003327EC01CE5BDF4F488159812417350797
:1011A000D9F30D90BC91A02DA80FB91F6C93A68503
:1011B000B785A05CBF4F11963C932E93A689B78943
:1011C0002C9181E090E0058C02C0880F991F0A9451
:1011D000E2F7282B2C9381E090E0DF91CF910895E6
:1011E000FB01E05CFF4F208131812F5F3F4F2F7368
:1011F0003327DB01AE5BBF4F4D915C912417350760
:1012000039F0A081B181A60FB71F8C933183208361
:10121000089508951F920F920FB60F9211240BB6E6
:101220000F922F933F934F935F936F937F938F937F
:101230009F93AF93BF93EF93FF938091C60065E8B0
:1012400075E00E94F008FF91EF91BF91AF919F91DF
:101250008F917F916F915F914F913F912F910F905F
:101260000BBE0F900FBE0F901F90189508951F9200
:101270000F920FB60F9211240BB60F922F933F933C
:101280004F935F936F937F938F939F93AF93BF938E
:10129000EF93FF938091CE006DEF74E00E94F00811
:1012A000FF91EF91BF91AF919F918F917F916F913E
:1012B0005F914F913F912F910F900BBE0F900FBEFA
:1012C0000F901F90189508951F920F920FB60F92CE
:1012D00011240BB60F922F933F934F935F936F930D
:1012E0007F938F939F93AF93BF93EF93FF938091DF
:1012F000D60065E774E00E94F008FF91EF91BF917E
:10130000AF919F918F917F916F915F914F913F919D
:101310002F910F900BBE0F900FBE0F901F9018953E
:1013200008951F920F920FB60F9211240BB60F92D1
:101330002F933F934F935F936F937F938F939F93DD
:10134000AF93BF93EF93FF93809136016DEE73E0FF
:101350000E94F008FF91EF91BF91AF919F918F9103
:101360007F916F915F914F913F912F910F900BBEA5
:101370000F900FBE0F901F9018958AE893E00E947F
:101380005508892B11F00E9409098BE693E00E9411
:101390005508892B11F00E9436098CE493E00E94D5
:1013A0005508892B11F00E9463098DE293E00E9499
:1013B0005508892B11F00C94900908951F920F92F3
:1013C0000FB60F9211240BB60F922F933F938F936A
:1013D0009F93EF93FF932091810530918205809137
:1013E0008305909184052817390731F48091C10055
:1013F0008F7D8093C10014C0E0918305F091840536
:10140000EF5BFA4F208180918305909184050196CE
:101410008F73992790938405809383052093C6004A
:10142000FF91EF919F918F913F912F910F900BBE64
:101430000F900FBE0F901F9018951F920F920FB62E
:101440000F9211240BB60F922F933F938F939F937C
:10145000EF93FF932091F9043091FA048091FB04FB
:101460009091FC042817390731F48091C9008F7DD1
:101470008093C90014C0E091FB04F091FC04E75490
:10148000FB4F20818091FB049091FC0401968F73A7
:1014900099279093FC048093FB042093CE00FF9146
:1014A000EF919F918F913F912F910F900BBE0F90D5
:1014B0000FBE0F901F9018951F920F920FB60F92AC
:1014C00011240BB60F922F933F938F939F93EF931B
:1014D000FF93209171043091720480917304909174
:1014E00074042817390731F48091D1008F7D8093DF
:1014F000D10014C0E0917304F0917404EF5CFB4FD1
:101500002081809173049091740401968F739927C0
:1015100090937404809373042093D600FF91EF910D
:101520009F918F913F912F910F900BBE0F900FBE07
:101530000F901F9018951F920F920FB60F921124C3
:101540000BB60F922F933F938F939F93EF93FF933D
:101550002091E9033091EA038091EB039091EC0331
:101560002817390731F4809131018F7D8093310143
:1015700014C0E091EB03F091EC03E755FC4F2081A0
:101580008091EB039091EC0301968F7399279093D0
:10159000EC038093EB0320933601FF91EF919F9131
:1015A0008F913F912F910F900BBE0F900FBE0F9018
:1015B0001F901895CF92DF92EF92FF92CF93DF9317
:1015C000EC016A017B01411581EE58076105710547
:1015D000F9F0EC89FD8981E090E00E8C02C0880F63
:1015E000991F0A94E2F7808360E079E08DE390E050
:1015F000A70196010E941B1221503109410951098E
:101600005695479537952795211580E1380798F02D
:10161000EC89FD89108260E874E88EE190E0A70112
:1016200096010E941B12215031094109510956951A
:10163000479537952795E889F9893083EA89FB89A9
:101640002083EE89FF89408181E090E09C010A8C33
:1016500002C0220F331F0A94E2F7422B4083EE8927
:10166000FF8940819C010B8C02C0220F331F0A941A
:10167000E2F7422B4083EE89FF8940819C010C8C6C
:1016800002C0220F331F0A94E2F7422B4083EE89F7
:10169000FF8920810D8C02C0880F991F0A94E2F700
:1016A000809582238083DF91CF91FF90EF90DF9030
:1016B000CF900895CF9310928D0310928C0388EEF3
:1016C00093E0A0E0B0E080938E0390938F03A0930B
:1016D0009003B093910326EF32E030938B03209375
:1016E0008A0345E855E0509397034093960341E4FD
:1016F00055E0509399034093980345EC50E0509384
:101700009B0340939A0344EC50E050939D03409315
:101710009C0340EC50E050939F0340939E0341ECA8
:1017200050E05093A1034093A00346EC50E0509347
:10173000A3034093A203C4E0C093A403F3E0F09397
:10174000A503E7E0E093A60375E07093A70361E0CB
:101750006093A80310926E0310926D0380936F0341
:1017600090937003A0937103B093720330936C0352
:1017700020936B034DEF54E050937803409377032D
:1017800049EB54E050937A03409379034DEC50E0D9
:1017900050937C0340937B034CEC50E050937E03CA
:1017A00040937D0348EC50E05093800340937F03C7
:1017B00049EC50E050938203409381034EEC50E09B
:1017C0005093840340938303C0938503F09386036F
:1017D000E0938703709388036093890310924F030B
:1017E00010924E038093500390935103A0935203A1
:1017F000B093530330934D0320934C0345E754E0DB
:10180000509359034093580341E354E050935B03D2
:1018100040935A0345ED50E050935D0340935C03C1
:1018200044ED50E050935F0340935E0340ED50E081
:10183000509361034093600341ED50E05093630384
:101840004093620346ED50E0509365034093640378
:10185000C0936603F0936703E09368037093690392
:1018600060936A031092300310922F038093310328
:1018700090933203A0933303B093340330932E0339
:1018800020932D038DEE93E090933A0380933903D8
:1018900089EA93E090933C0380933B0385E391E0D6
:1018A00090933E0380933D0384E391E09093400343
:1018B00080933F0380E391E0909342038093410340
:1018C00081E391E0909344038093430386E391E0A6
:1018D0009093460380934503C0934703F0934803D6
:1018E000E093490370934A0360934B03CF910895AB
:1018F0000E94F3070E943003CDEBD9E00E947403ED
:101900002097E1F30E94BD09F9CFFC01808191810C
:101910000C94E812CF93DF93EC01888199810097B2
:1019200011F00E94E812198218821D821C821B820B
:101930001A82DF91CF9108950F931F93CF93DF9376
:10194000EC018B016F5F7F4F888199810E94861324
:10195000009731F0998388831B830A8381E001C05B
:1019600080E0DF91CF911F910F910895CF93DF9386
:10197000EC0188819981892B31F08A819B818617BE
:10198000970708F00CC0CE010E949C0C882349F0F8
:101990008C819D81892B19F4E881F981108281E085
:1019A00001C080E0DF91CF910895EF92FF920F93F5
:1019B0001F93CF93DF93EC017B018A01BA010E9450
:1019C000B60C811104C0CE010E948A0C07C01D8391
:1019D0000C83B701888199810E948814CE01DF9120
:1019E000CF911F910F91FF90EF900895DC01119618
:1019F0001C921E9213961C921E92129715961C9280
:101A00001E92149716961C926115710559F0DB0110
:101A10000D900020E9F7AD0141505109461B570BCD
:101A20000C94D50C0895CF93DF93EC01FB0186173E
:101A3000970761F0608171816115710529F044811A
:101A400055810E94D50C02C00E948A0CCE01DF9104
:101A5000CF910895FC0111821082138212821582A7
:101A6000148216820C94130DEF92FF920F931F9322
:101A7000CF93DF93EC017B010C811D816115710512
:101A800011F480E016C04115510591F0040F151FA7
:101A9000B8010E94B60C8823A1F3288139818C817A
:101AA0009D81B701820F931F0E9488141D830C83B0
:101AB00081E0DF91CF911F910F91FF90EF900895FA
:101AC000CF93DF931F921F92CDB7DEB769831A823F
:101AD00041E050E0BE016F5F7F4F0E94340D0F90D8
:101AE0000F90DF91CF9108950F931F93CF93DF93C2
:101AF000EB0141155105E9F02097D9F0FC01048173
:101B000015812017310708F013C041505109021BFD
:101B1000130B4017510708F48A01FC0160817181A1
:101B2000620F731FA801CE010E948F14C00FD11F36
:101B30001882DF91CF911F910F910895CF92DF927C
:101B4000EF92FF920F931F93CF93DF936C01EB0102
:101B50007A01E60EF71E00E010E00BC06991D60195
:101B6000ED91FC910190F081E02DC6011995080FCF
:101B7000191FCE15DF0591F7C801DF91CF911F9195
:101B80000F91FF90EF90DF90CF900895DB010D90C3
:101B90000020E9F7AD0141505109461B570BDC010C
:101BA000ED91FC910280F381E02D19940C94C60D07
:101BB000DC01ED91FC910190F081E02D19940F93DF
:101BC0001F93CF93DF93EC016DE00E94D80D8C0141
:101BD0006AE0CE010E94D80D9C01200F311FC9017F
:101BE000DF91CF911F910F9108950F931F93CF9382
:101BF000DF93EC010E94C60D8C01CE010E94DF0D27
:101C00009801280F391FC901DF91CF911F910F91C2
:101C100008954F925F926F927F929F92AF92BF9280
:101C2000CF92DF92EF92FF920F931F93CF93DF93A8
:101C3000CDB7DEB7A1970FB6F894DEBF0FBECDBF0C
:101C40005C016A017B01922E19A281E0821710F0DB
:101C50008AE0982E8E010F5D1F4F492C512C612C6C
:101C6000712CC701B601A30192010E941B128C2D99
:101C7000929E80191124015011098A3014F4805D5C
:101C800001C0895CF801808369017A01C114D10423
:101C9000E104F10431F7B801C5010E94C60DA19617
:101CA0000FB6F894DEBF0FBECDBFDF91CF911F916D
:101CB0000F91FF90EF90DF90CF90BF90AF909F90EB
:101CC0007F906F905F904F900895CF92DF92EF9248
:101CD000FF920F931F93CF93DF93EC016A017B0177
:101CE0002115310579F4E881F9810190F081E02D29
:101CF000642FDF91CF911F910F91FF90EF90DF90B4
:101D0000CF9019942A30310519F477FD0EC02AE0DE
:101D1000B701A601CE01DF91CF911F910F91FF90E6
:101D2000EF90DF90CF900C94090E6DE20E94D80DD9
:101D30008C0144275527BA014C195D096E097F09AA
:101D40002AE0CE010E94090E080F191FC801DF9179
:101D5000CF911F910F91FF90EF90DF90CF9008955A
:101D60000F931F93CF93DF93EC010E94650E8C01BC
:101D7000CE010E94DF0D9C01200F311FC901DF91B0
:101D8000CF911F910F9108950F931F93CF93DF93DE
:101D9000EC019A01AB01662757FD6095762F0E94F2
:101DA000650E8C01CE010E94DF0D9801280F391FAE
:101DB000C901DF91CF911F910F9108957F928F926A
:101DC0009F92AF92BF92CF92DF92EF92FF920F93CA
:101DD0001F93CF93DF938C014A015B01F22E20E029
:101DE00030E0A901C501B4010E945E1087FF0AC05E
:101DF0006DE2C8010E94D80DEC01B7FAB094B7F8B3
:101E0000B09402C0C0E0D0E0E12C60E070E080E07F
:101E10009FE307C020E030E040E251E40E946210FE
:101E2000E394EF10F7CF262F372F482F592FC501F6
:101E3000B4010E94FA0F762E872E982EA92E0E94AA
:101E4000CF10B62EC72ED82EE92E0E94FB109B0174
:101E5000AC01672D782D892D9A2D0E94F90FA62EA1
:101E6000972E882E792E2AE04B2D5C2D6D2D7E2D00
:101E7000C8010E94090EC80FD91FFF20B9F162E006
:101E800073E0C8010E94C60DC80FD91F2FC020E003
:101E900030E040E251E46A2D792D882D972D0E9483
:101EA000AD11762EC72ED82EE92E0E94CA104B01F6
:101EB000AA2497FCA094BA2C2AE030E0B501A40132
:101EC000C8010E94650EC80FD91FC501B4010E9448
:101ED000FD109B01AC01672D7C2D8D2D9E2D0E9448
:101EE000F90FA62E972E882E792EFA94F110CFCFC7
:101EF000CE01DF91CF911F910F91FF90EF90DF9076
:101F0000CF90BF90AF909F908F907F9008950C944A
:101F1000DE0E0F931F93CF93DF93EC010E94DE0E32
:101F20008C01CE010E94DF0D9801280F391FC901D5
:101F3000DF91CF911F910F9108950F931F93CF932E
:101F4000DF93EC010E949107688779878A879B87D6
:101F5000E881F9810680F781E02DCE0119959C0179
:101F600097FF15C00E949107088519852A853B8532
:101F7000601B710B820B930B0C811D812E813F81A5
:101F8000601771078207930718F32FEF3FEFC9011E
:101F9000DF91CF911F910F910895EF92FF920F93D0
:101FA0001F93CF93DF93EC018B01E42E65EC72E07D
:101FB0000E94F60CC8010E949D0FFF24E7FCF094DC
:101FC00097FD0BC08E159F0541F0682FCE010E9432
:101FD000600DC8010E949D0FF3CFCE01DF91CF911C
:101FE0001F910F91FF90EF9008950C944D120C9457
:101FF000E8125058BB27AA270ED075C166D130F021
:102000006BD120F031F49F3F11F41EF45BC10EF44C
:10201000E095E7FB51C1E92F77D180F3BA1762074A
:1020200073078407950718F071F49EF58FC10EF4BD
:10203000E0950B2EBA2FA02D0B01B90190010C01D8
:10204000CA01A0011124FF27591B99F0593F50F4F0
:10205000503E68F11A16F040A22F232F342F442748
:10206000585FF3CF469537952795A795F040539540
:10207000C9F77EF41F16BA0B620B730B840BBAF010
:102080009150A1F0FF0FBB1F661F771F881FC2F77B
:102090000EC0BA0F621F731F841F48F4879577958F
:1020A0006795B795F7959E3F08F0B3CF9395880F46
:1020B00008F09927EE0F979587950895D9D008F4E1
:1020C00081E008950CD00FC107D140F0FED030F070
:1020D00021F45F3F19F0F0C0511139C1F3C014D1A0
:1020E00098F39923C9F35523B1F3951B550BBB27DF
:1020F000AA2762177307840738F09F5F5F4F220F8C
:10210000331F441FAA1FA9F333D00E2E3AF0E0E884
:1021100030D091505040E695001CCAF729D0FE2FD0
:1021200027D0660F771F881FBB1F26173707480762
:10213000AB07B0E809F0BB0B802DBF01FF27935818
:102140005F4F2AF09E3F510568F0B6C000C15F3F67
:10215000ECF3983EDCF3869577956795B795F79500
:102160009F5FC9F7880F911D9695879597F90895F8
:10217000E1E0660F771F881FBB1F62177307840794
:10218000BA0720F0621B730B840BBA0BEE1F88F7A3
:10219000E095089504D06894B111D9C00895BCD0D9
:1021A00088F09F5790F0B92F9927B751A0F0D1F040
:1021B000660F771F881F991F1AF0BA95C9F712C0CA
:1021C000B13081F0C3D0B1E00895C0C0672F782F3F
:1021D0008827B85F39F0B93FCCF386957795679536
:1021E000B395D9F73EF490958095709561957F4FA2
:1021F0008F4F9F4F0895E89409C097FB3EF4909548
:102200008095709561957F4F8F4F9F4F9923A9F0CF
:10221000F92F96E9BB279395F6958795779567955E
:10222000B795F111F8CFFAF4BB0F11F460FF1BC0A2
:102230006F5F7F4F8F4F9F4F16C0882311F096E935
:1022400011C0772321F09EE8872F762F05C06623E3
:1022500071F096E8862F70E060E02AF09A95660F9C
:10226000771F881FDAF7880F9695879597F9089555
:10227000990F0008550FAA0BE0E8FEEF1616170697
:10228000E807F907C0F012161306E407F50798F0FF
:10229000621B730B840B950B39F40A2661F0232B18
:1022A000242B252B21F408950A2609F4A140A69594
:1022B0008FEF811D811D089597F99F6780E870E079
:1022C00060E008959FEF80EC089500240A941616AC
:1022D000170618060906089500240A941216130614
:1022E000140605060895092E0394000C11F48823A2
:1022F00052F0BB0F40F4BF2B11F460FF04C06F5FBE
:102300007F4F8F4F9F4F089557FD9058440F551F93
:1023100059F05F3F71F04795880F97FB991F61F067
:102320009F3F79F087950895121613061406551FDE
:10233000F2CF4695F1DF08C0161617061806991F4A
:10234000F1CF86957105610508940895E894BB273F
:1023500066277727CB0197F908950BD0C4CFB5DF57
:1023600028F0BADF18F0952309F0A6CFABCF1124DF
:10237000EECFCADFA0F3959FD1F3950F50E0551F24
:10238000629FF001729FBB27F00DB11D639FAA27CA
:10239000F00DB11DAA1F649F6627B00DA11D661F19
:1023A000829F2227B00DA11D621F739FB00DA11D3A
:1023B000621F839FA00D611D221F749F3327A00DF4
:1023C000611D231F849F600D211D822F762F6A2F90
:1023D00011249F5750408AF0E1F088234AF0EE0F15
:1023E000FF1FBB1F661F771F881F91505040A9F722
:1023F0009E3F510570F060CFAACF5F3FECF3983E4F
:10240000DCF3869577956795B795F795E7959F5F88
:10241000C1F7FE2B880F911D9695879597F9089522
:102420000E943D12A59F900DB49F900DA49F800D1A
:10243000911D11240895A1E21A2EAA1BBB1BFD01B8
:102440000DC0AA1FBB1FEE1FFF1FA217B307E40793
:10245000F50720F0A21BB30BE40BF50B661F771FEB
:10246000881F991F1A9469F76095709580959095CB
:102470009B01AC01BD01CF010895A29FB001B39FA4
:10248000C001A39F01D0B29F700D811D1124911D29
:1024900008950790F691E02D19940F931F93CF9311
:1024A000DF938230910510F482E090E0E091CB055B
:1024B000F091CC0520E030E0C0E0D0E023C04081C6
:1024C000518148175907A8F04817590761F48281CC
:1024D0009381209719F09B838A832EC09093CC051B
:1024E0008093CB0529C02115310529F042175307E8
:1024F00010F0A90102C0BE01DF0102811381EF01CA
:102500009A01F8013097D9F62115310509F1281BF8
:10251000390B2430310590F412968D919C911397CC
:102520006115710521F0FB019383828304C09093B0
:10253000CC058093CB05FD01329644C0FD01E20F2E
:10254000F31F81939193225031092D933C933AC00C
:102550002091C9053091CA05232B41F42091020234
:10256000309103023093CA052093C90520910002DF
:10257000309101022115310541F42DB73EB740914C
:10258000040250910502241B350BE091C905F0911E
:10259000CA05E217F307A0F42E1B3F0B28173907D3
:1025A00078F0AC014E5F5F4F2417350748F04E0FAF
:1025B0005F1F5093CA054093C9058193919302C050
:1025C000E0E0F0E0CF01DF91CF911F910F910895EE
:1025D000EF92FF920F931F93CF93DF93009709F42D
:1025E0008EC0DC01129713961C921E921297E090F7
:1025F000CB05F090CC05E114F10489F42D913C91C8
:102600001197280F391F8091C9059091CA0582172B
:10261000930789F5B093CA05A093C90570C0E70177
:1026200020E030E001C0EA01CA17DB0738F44A8134
:102630005B819E0141155105B1F722C0AC014250AA
:102640005109FA01D383C28300811181BC01600F5B
:10265000711F6C177D0761F468817981600F711FAC
:102660006E5F7F4F718360836A817B817383628336
:102670002115310529F4B093CC05A093CB053FC0BB
:10268000F901B383A283E90149915991C40FD51F80
:10269000AC17BD0771F4DC019E918E91840F951FDC
:1026A00002969183808312968D919C9113979383C8
:1026B0008283A0E0B0E002C0D7017C01F7018281F3
:1026C00093810097C9F7C701029620813181820F5B
:1026D000931F2091C9053091CA052817390779F44D
:1026E000109729F41092CC051092CB0504C01396D4
:1026F0001C921E921297F092CA05E092C905DF91D2
:10270000CF911F910F91FF90EF9008958F929F921C
:10271000AF92BF92CF92DF92EF92FF920F931F93EF
:10272000CF93DF93EC01009779F4CB01DF91CF9148
:102730001F910F91FF90EF90DF90CF90BF90AF90DF
:102740009F908F900C944D12DC01A60FB71FFC01D7
:102750003297AE17BF0718F4C0E0D0E0A9C00081DF
:10276000118106171707B0F00530110508F4A0C055
:10277000C80104978617970708F49AC002501109F8
:10278000061B170B0D931D9371836083CD010E946F
:10279000E8128EC06B01C01AD10A7C01E00EF11E56
:1027A000E091CB05F091CC0520E030E080E090E0B6
:1027B00048C0EE15FF05D1F580809180540142E0BC
:1027C000A40EB11CAC14BD0488F17401EC18FD0812
:1027D000670122E0C20ED11C9E012250310945E062
:1027E000C416D10478F04281538113965C934E93C2
:1027F00012971196FC92EE92F901718360833A2F41
:102800002B2F09C00E5F1F4F080D191DD9010D9305
:102810001C9332812381009721F0FC0132832383B2
:1028200047C03093CB052093CC0542C08081918175
:102830002817390708F49C0152814381CF01E52F05
:10284000F42F309709F0B5CF8091C9059091CA0552
:102850008E159F05F1F426173707D8F480910002F2
:1028600090910102009741F48DB79EB72091040228
:1028700030910502821B930BA817B90708F06CCFA3
:10288000B093CA05A093C905FE0132977183608396
:102890000FC0CB010E944D127C01009709F45CCF60
:1028A000A801BE010E947614CE010E94E812E70141
:1028B000CE01DF91CF911F910F91FF90EF90DF90AC
:1028C000CF90BF90AF909F908F9008956627772705
:1028D0000C94C5149111BEC1803219F089508550F5
:1028E000D0F7089544E053E00C949E14FB01DC0102
:1028F00002C001900D9241505040D8F70895FB015D
:10290000DC018D91019080190110D9F3990B089584
:10291000FB01DC0101900D920020E1F70895FB011D
:10292000DC014150504048F001900D920020C9F761
:1029300001C01D9241505040E0F70895FA01A19165
:10294000B081009719F41097E1F0CD01DC01CD01C1
:102950000D90002011F4C00113C0FB01219122232E
:1029600019F02015D9F7F3CFFB012191201519F4A7
:102970001E92119606C02223C1F70D900020A1F7E8
:10298000D001FA01A193B08308958F929F92AF92E4
:10299000BF92CF92DF92EF92FF920F931F93CF934C
:1029A000DF938B016115710519F0FB018083918321
:1029B0007C01F701C1907F01EF018C2D90E00E9416
:1029C0006A14892BB1F7FDE2CF1204C0C990DD244F
:1029D000D39405C02BE2C21201C0C990D12C7E0154
:1029E00041E0E41AF10843E050E06AEE71E0C7010B
:1029F0000E942D16892BE9F47E0182E0E80EF11C7D
:102A000045E050E06DEE71E0C7010E942D16892B64
:102A100021F47E01E7E0EE0EF11C0115110519F01D
:102A2000F801F182E08210E0D0E0C0E8D110FBC0F4
:102A3000FFC043E050E062EF71E0C7010E942D1635
:102A4000892B49F40115110509F4EFC02296F8010C
:102A5000D183C083EAC060E070E0CB01E12CF12CAF
:102A6000EC2DE053EA3048F5FD2DF2602D2D287055
:102A7000D2FE06C0211127C02FEFE21AF20A23C0AE
:102A8000222319F041E0E41AF108A5E0B0E09B012F
:102A9000AC010E941012660F771F881F991F6E0FDE
:102AA000711D811D911D6839E9E97E078E07E9E1F5
:102AB0009E0748F0FD2DF66006C0EE3F39F4D3FCCA
:102AC0003DC0FD2DF860C990DF2ECACFE53311F06F
:102AD000E531A1F5A881AD3219F4F0E1DF2A06C095
:102AE000AB3221F0219621E030E004C0A98122968A
:102AF00022E030E0A053AA3018F0C21BD30B1EC056
:102B0000FE0120E030E020384CE034075CF4A901FD
:102B1000440F551F440F551F240F351F220F331F1D
:102B20002A0F311DA191A053EF01AA3060F3D4FE0A
:102B300003C0319521953109E20EF31ED1FE07C085
:102B40000115110521F02197F801D183C0830E945E
:102B5000FB102D2D2370233029F0162FD72FC82FCF
:102B6000092F07C0DC01CB01B058182FD92FCA2F6D
:102B70000B2F20E030E0A901612F7D2F8C2F902FAB
:102B80000E945E10882309F454C0F7FE08C0F19437
:102B9000E194F10831E2C32E32E0D32E04C029E0E3
:102BA000C22E22E0D22E4601F8E18F1A910890E25F
:102BB000A92EB12C15C0F6014591559165917491DE
:102BC000242F352F462F572F612F7D2F8C2F902F9D
:102BD0000E94AD11162FD72FC82F092FEA18FB0816
:102BE000EA14FB0444F724E0C21AD108B594A79470
:102BF000C814D904A9F7612F7D2F8C2F902F282F6F
:102C0000220F292F221F2F3F39F020E030E0A901A9
:102C10000E945E1081110DC082E290E09093CE057B
:102C20008093CD0506C00FEF04C010E0D0E0C0ECEB
:102C30000FE7612F7D2F8C2F902FDF91CF911F9168
:102C40000F91FF90EF90DF90CF90BF90AF909F904B
:102C50008F900895992788270895FB01DC01415042
:102C6000504088F08D9181341CF08B350CF4805EDF
:102C7000659161341CF06B350CF4605E861B61114C
:0E2C800071F3990B0895881BFCCFF894FFCFD9
:102C8E000000CF052000FFFF537465707320583A83
:102C9E00002C20537465707320593A002C20537405
:102CAE00657073205A3A000000000048014F019EE3
:102CBE000100000000DF03E5039E01636F6D6D618F
:102CCE006E64203D3D204E554C4C3A00636F6D6D49
:102CDE00616E642D3E676574436F6465456E756DF8
:102CEE002829203D3D20434F44455F554E444546DF
:102CFE00494E45443A0054686973206973206661F1
:102D0E006C73653A2068616E646C6572203D3D207F
:102D1E004E554C4C0000000000F203F80347300003
:102D2E0047303000473100473031004732004730DE
:102D3E003200473300473033004734004730340009
:102D4E002000200A0D00436F6D6D616E642077695F
:102D5E00746820636F64653A47002C20593A002C42
:102D6E00205A3A0043757272656E742073746174E2
:102D7E00650000000000BA089E0D5508840868081A
:042D8E00A8082E0063
:00000001FF
