:10000000A2C20000D1C20000CFC20000CDC20000D9
:10001000CBC20000C9C20000C7C20000C5C20000B8
:10002000C3C20000C1C20000BFC20000BDC20000C8
:10003000BBC20000B9C20000B7C20000B5C20000D8
:10004000B3C200000C94C809AFC20000ADC20000EA
:100050000C942D0DA9C20000A7C200000C94E30C63
:10006000A3C200000C94BB0B0C94920B9DC2000029
:100070009BC2000099C2000097C2000095C2000018
:100080000C949B0991C200008FC200008DC2000039
:100090008BC2000089C2000087C2000085C2000038
:1000A00083C2000081C200000C946E097DC2000072
:1000B0007BC2000079C2000077C200000C944109A5
:1000C00073C2000071C200006FC200006DC2000068
:1000D0006BC2000069C2000067C2000065C2000078
:1000E00063C200001A0B1D0B0C0B100B160B540BEC
:1000F000210B250B2B0B2F0B330B390B3D0B410B1E
:10010000540B470B4B0B4F0BB412C112CA12D31234
:10011000E012E91285168516851685168516F612E3
:100120000313101385161D1326132F133C134513A9
:100130004E13571360136913851672137B138413C0
:100140008516851685168D1396139F1385168516AD
:10015000A813B513851685168516C213CF13DC13A5
:100160008516E913F213FB138516851685160414FC
:100170000D1416148516231430143D148516851697
:1001800085164A1457146414851671147E148B1442
:100190008516851685169814A514B2148516BF14F5
:1001A000C814D114851685168516851685168516EC
:1001B0008516851685168516851685168516851667
:1001C0008516851685168516851685168516851657
:1001D0008516F514FE140715851610151915221528
:1001E0008516851685162B15381545158516521555
:1001F0005F156C1585168516851679158615931568
:100200008516A015A915B215851685168516BB1578
:10021000C415CD1585168516851685168516851681
:1002200085168516851685168516DA14E314EC14E2
:1002300085168516851685168516851685168516E6
:1002400085168516851685168516851685168516D6
:1002500085168516851685168516851685168516C6
:1002600085168516851685168516851685168516B6
:1002700085168516851685168516851685168516A6
:100280008516851685168516851685168516851696
:1002900085168516851685168516D615DF15EC1577
:1002A0008516F91502160F168516851685161C1665
:1002B0002516321685163F164816551685168516CC
:1002C000851662166B16781608180D1812181C1869
:1002D00026189F183018381840184A1854185E18F5
:1002E0006D1877189F1881188B1895184E414E4934
:1002F0004E495459494E46CDCCCC3D0AD7233C17E4
:10030000B7D13877CC2B329595E6241FB14F0A0030
:100310000020410000C84200401C4620BCBE4CCA20
:100320001B0E5AAEC59D7400407A10F35A00A0729D
:100330004E18090010A5D4E80000E8764817000020
:10034000E40B54020000CA9A3B000000E1F50500EE
:100350000080969800000040420F000000A0860137
:10036000000000102700000000E803000000006407
:1003700000000000000A0000000000010000000072
:10038000002C76D888DC674F0823DFC1DFAE59E147
:10039000B1B796E5E3E453C63AE651997696E8E6B6
:1003A000C28426EB898C9B62ED407C6FFCEFBC9C89
:1003B0009F40F2BAA56FA5F490055A2AF75C936B9B
:1003C0006CF9676DC11BFCE0E40D47FEF520E6B556
:1003D00000D0ED902E0300943577050080841E0830
:1003E0000000204E0A000000C80C333333330F984E
:1003F0006E12831141EF8D2114893BE65516CFFE15
:10040000E6DB18D1844B381BF77C1D901DA4BBE4A0
:1004100024203284725E228100C9F124ECA1E53DE2
:100420002700002100240027002A002D003000337F
:100430000001010000040107010A0101021020204F
:100440000808102040102040800201020108040228
:10045000010102040810204080804020100804029E
:1004600001800402018040201008040201080402F7
:1004700001010204081020408001020408102040FD
:100480008005050505070508080808020202020A9A
:100490000A08080404040401010101010101010327
:1004A00003030303030303040707070C0C0C0C0CE2
:1004B0000C0C0C0202020206060606060606060BD5
:1004C0000B0B0B0B0B0B0B00000A0B02090C0D0E98
:1004D0000807030401000000000000000000000005
:1004E000000000000000000000000000000000000C
:1004F00000000012111000000000000000000000C9
:1005000000000000000000000000000000000022C9
:1005100000250028002B002E0031003400020100CD
:1005200000050108010B010000200023002600291E
:10053000002C002F00320000010000030106010919
:100540000100D945D44511241FBECFEFD1E2DEBF53
:10055000CDBF00E00CBF17E0A0E0B2E0EEEAFFE99B
:1005600000E00BBF02C007900D92AE32B107D9F781
:100570002CE0AEE2B7E001C01D92A93DB207E1F761
:1005800012E0C2EAD2E000E006C021970109802F04
:10059000FE010E94BA4EC13AD10780E00807A9F7D0
:1005A0000E94E73B0C94C64F2BCDCF92DF92EF9287
:1005B000FF92CF93DF93EC01603282E078070CF07A
:1005C0003DC077FD06C0653B71052CF064EB70E023
:1005D00002C060E070E0898128E830E06901C81A53
:1005E000D10887FDD394CC0CDD1CCC0CDD1C0D2C6C
:1005F000000CEE08FF088A8128E532E0281B31094B
:1006000087FD3395220F331F220F331FC901330F8C
:10061000AA0BBB0B9C01AD012C193D094E095F09CA
:10062000DB010E947D4D24EB30E040E050E00E9471
:10063000574DC20ED31EE41EF51EB60188818033CD
:1006400080F5998148E850E0491B510997FD539581
:10065000440F551F440F551F6417750784F09A8186
:1006600028E532E0291B310997FD3395220F331F0E
:10067000220F331FAB01261737070CF4A901425094
:100680005109440F551F2FB7F89490E0FC01EE0F6D
:10069000FF1F8E0F9F1FFC01EE5CF34F52834183BF
:1006A0002FBFDF91CF91FF90EF90DF90CF90089513
:1006B000662319F081EE93E002C08AED93E00C947A
:1006C00020370C9413470C9413470C9413470C9445
:1006D00013470C9413470C9413470C9413470C9432
:1006E00013470C9413470C9413470C9413470C9422
:1006F00013470C9413470C9413470C9413470C9412
:1007000013470C9413470C9413470F931F93CF93E5
:10071000DF93FB0102A913A9C68DD78D0E94AC18E7
:10072000A801BE010E94CE2880E090E0DF91CF9129
:100730001F910F9108950F931F93CF93DF93FB01A8
:10074000C2A1D3A1068D178D8091810B9091820B50
:10075000892B41F481E090E00E947E469093820BC9
:100760008093810B0430110539F00530110541F4F7
:10077000BE0186EC9CE003C0BE0183EC9CE015DF6B
:1007800080E090E0DF91CF911F910F910895EF925B
:10079000FF920F931F93CF93DF93FB01E2A8F3A87F
:1007A00002A113A1C68DD78D0E94AC189701A80194
:1007B000BE010E94C41780E090E0DF91CF911F91AD
:1007C0000F91FF90EF9008956F927F928F929F927A
:1007D000AF92BF92CF92DF92EF92FF920F931F934F
:1007E000CF93DF93FB01E2A8F3A886A497A4A0A867
:1007F000B1A8C6A0D7A062A073A0068D178D0E94D5
:10080000AC18EC019701A301B8010E94C417C501FF
:10081000B4010E949F0C9701A601B801CE010E946D
:10082000C41780E090E0DF91CF911F910F91FF906E
:10083000EF90DF90CF90BF90AF909F908F907F9080
:100840006F9008951F93CF93DF931F92CDB7DEB7BC
:10085000FB0162A9168D69830E94AC186981812F02
:100860000E94580C80E090E00F90DF91CF911F9193
:100870000895CF93DF93FB01C68DD78D0E94F219A7
:10088000BE010E94B01980E090E0DF91CF91089501
:10089000EF92FF920F931F93CF93DF9300D01F929D
:1008A000CDB7DEB7FB0122A133A144A155A1068D2E
:1008B000178D29833A834B835C830E94F2197C0154
:1008C000FC018281938129813A814B815C818F3047
:1008D000F7E29F072CF40196F7019383828303C00C
:1008E000F70113821282B801C70129833A834B832F
:1008F0005C830E94CB1829813A814B815C818823DB
:10090000A1F0F801EE0FFF1FEE0FFF1FEE5CF84F96
:100910002083318342835383B801C7010E94611948
:10092000B801C7010E94B01904C089E894E00E9490
:1009300020370E94A2280E94722880E090E00F9049
:100940000F900F900F90DF91CF911F910F91FF901B
:10095000EF9008958F929F92AF92BF92CF92DF92C5
:10096000EF92FF920F931F930E94592862E070E06C
:100970000E94A131892BD1F40E94592821E02F93A4
:100980001F921F921F921F92812C912CA12CB12C8F
:10099000C12CD12C760197018601B701A6010E94D6
:1009A000201B0F900F900F900F900F9080E090E021
:1009B0001F910F91FF90EF90DF90CF90BF90AF907D
:1009C0009F908F9008958F929F92AF92BF92CF92F7
:1009D000DF92EF92FF920F931F930E94592861E0DC
:1009E00070E00E94A131892BD1F40E9459281F92F6
:1009F00021E02F931F921F921F92812C912CA12CEA
:100A0000B12CC12CD12C760197018601B701A6012A
:100A10000E94201B0F900F900F900F900F9080E07E
:100A200090E01F910F91FF90EF90DF90CF90BF90DB
:100A3000AF909F908F9008958F929F92AF92BF92A8
:100A4000CF92DF92EF92FF920F931F930E9459284B
:100A500060E070E00E94A131892BD1F40E945928F6
:100A60001F921F9221E02F931F921F92812C912C95
:100A7000A12CB12CC12CD12C760197018601B70194
:100A8000A6010E94201B0F900F900F900F900F90C7
:100A900080E090E01F910F91FF90EF90DF90CF905A
:100AA000BF90AF909F908F9008958F929F92AF923A
:100AB000BF92CF92DF92EF92FF920F931F930E940B
:100AC000592821E02F931F921F921F921F92812C71
:100AD000912CA12CB12CC12CD12C7601970186012F
:100AE000B701A6010E94201B0F900F900F900F904E
:100AF0000F9080E090E01F910F91FF90EF90DF90BA
:100B0000CF90BF90AF909F908F9008958F929F92BB
:100B1000AF92BF92CF92DF92EF92FF920F931F930B
:100B20000E9459281F9221E02F931F921F921F921B
:100B3000812C912CA12CB12CC12CD12C76019701A8
:100B40008601B701A6010E94201B0F900F900F9005
:100B50000F900F9080E090E01F910F91FF90EF9029
:100B6000DF90CF90BF90AF909F908F9008958F921D
:100B70009F92AF92BF92CF92DF92EF92FF920F932C
:100B80001F930E9459281F921F9221E02F931F92BA
:100B90001F92812C912CA12CB12CC12CD12C76012F
:100BA00097018601B701A6010E94201B0F900F90AC
:100BB0000F900F900F9080E090E01F910F91FF90A9
:100BC000EF90DF90CF90BF90AF909F908F9008955F
:100BD000CF92DF92EF92FF920F931F93CF93DF9309
:100BE0006C018B017A01EC01CD58D44F888187FFCD
:100BF00004C0FB011182108224C08CE08C9D900106
:100C00008D9D300D11248881A901480F511D87FD4C
:100C10005A958091C20C90E04817590794F4888146
:100C2000A901480F511D87FD5A95CA01FA01EE0F1F
:100C3000FF1F8E0F9F1FFC01EE5CF34F808186FD2E
:100C400019C088818F5F88838CE08C9D90018D9D79
:100C5000300D11248881A901480F511D87FD5A9537
:100C60008091C20C90E048175907B4F488818C3009
:100C70003CF112C08881280F311D87FD3A95F9019A
:100C8000EE0FFF1F2E0F3F1FF901EE5CF34F808127
:100C900060E08F73CED5D5CFF80180819181049625
:100CA00080349C4918F480E49CE904C0F8018081F8
:100CB00091810496F701918380838FEF888344C0EC
:100CC000F801408151818881B901680F711D87FD4C
:100CD0007A95CB01FB01EE0FFF1F8E0F9F1FFC01CA
:100CE000EE5CF34F81819281840F951FF701918310
:100CF00080838881A901480F511D87FD5A95CA013B
:100D0000FA01EE0FFF1F8E0F9F1FFC01EE5CF34FE9
:100D1000808186FF19C08881280F311D87FD3A9593
:100D2000F901EE0FFF1F2E0F3F1FF901EE5CF34F8D
:100D3000808161E08F73DF91CF911F910F91FF90C0
:100D4000EF90DF90CF9075C5DF91CF911F910F91FC
:100D5000FF90EF90DF90CF90089508950895089543
:100D6000089508950895089508950895089508959B
:100D70000895089508950895089508950895EF92A7
:100D8000FF920F931F93CF93DF93CDB7DEB72E97CC
:100D90000FB6F894DEBF0FBECDBF8C0162ED73E0DD
:100DA0000E9418396BEA74E0C8010E94DA38609139
:100DB000B60A7091B70A8091B80A9091B90A2AE0F0
:100DC000AE014F5F5F4F7A010E94E247F701019049
:100DD0000020E9F73197AF014E195F09B701C8014B
:100DE0000E947D3860ED73E0C8010E94DA38C801C6
:100DF0002E960FB6F894DEBF0FBECDBFDF91CF9118
:100E00001F910F91FF90EF9008958BEA94E00E945C
:100E100020376091B60A7091B70A8091B80A909114
:100E2000B90A0E946C3780ED93E00C9420370F9341
:100E30001F93CF93DF93EC018EEA94E00E9420375A
:100E400082EB94E00E9420370BE71BE0F801608101
:100E5000CE012EDC86EB94E00E942037F801618100
:100E6000CE0126DC8AEB94E00E942037F8016281F3
:100E7000CE011EDC8EEB94E00E942037F8016381E6
:100E8000CE0116DC82EC94E00E942037F8016481E8
:100E9000CE010EDC86EC94E00E942037F8016581DB
:100EA000CE0106DCCE01DF91CF911F910F91ADCF26
:100EB000CF92DF92EF92FF92CF93DF93EC01888184
:100EC0009981AA81BB81181619061A061B0644F0DF
:100ED00081E090E0A0E0B0E088839983AA83BB839F
:100EE0008C819D81AE81BF81181619061A061B06DA
:100EF00044F081E090E0A0E0B0E08C839D83AE837D
:100F0000BF8388859985AA85BB85181619061A0698
:100F10001B0644F081E090E0A0E0B0E0888799876C
:100F2000AA87BB878AEC94E00E9420378BED94E07F
:100F30000E9420376091BA0A7091BB0A8091BC0A66
:100F40009091BD0A0E942B4C6B017C0168817981D4
:100F50008A819B810E942B4C9B01AC01C701B60189
:100F60000E94194E42E00E9493378BEE94E00E945B
:100F700020376091BE0A7091BF0A8091C00A90919B
:100F8000C10A0E942B4C6B017C016C817D818E819A
:100F90009F810E942B4C9B01AC01C701B6010E94AE
:100FA000194E42E00E9493378BEF94E00E94203765
:100FB0006091C20A7091C30A8091C40A9091C50AD7
:100FC0000E942B4C6B017C01688579858A859B8505
:100FD0000E942B4C9B01AC01C701B6010E94194E27
:100FE00042E00E949337CE01DF91CF91FF90EF90C6
:100FF000DF90CF900ACF8091790B90917A0B892B5B
:1010000091F58DE090E00E947E46FC0114861092DE
:10101000BA0A1092BB0A1092BC0A1092BD0A109232
:10102000BE0A1092BF0A1092C00A1092C10A109212
:10103000C20A1092C30A1092C40A1092C50A1092F2
:10104000780B1092770B1092B60A1092B70A109292
:10105000B80A1092B90A1092310710923007909393
:101060007A0B8093790B8091790B90917A0B08958C
:10107000CF93DF93EB0120E030E040E85FE36A814B
:101080007B818C819D810E94254C811111C08EEC49
:1010900094E00E9420370E945928FC01E25BFF4F38
:1010A000108211821282138282589E4F0E946738EA
:1010B00020E030E040E85FE36E817F81888599859C
:1010C0000E94254C811111C08EED94E00E942037C2
:1010D0000E945928FC01E853FF4F108211821282AE
:1010E000138286569E4F0E94673820E030E040E829
:1010F0005FE36A857B858C859D850E94254C8111E7
:1011000011C08EEE94E00E9420370E945928FC0105
:10111000EE5BFE4F10821182128213828A549E4F20
:101120000E94673868DF71DE80E090E0DF91CF9148
:1011300008958EEF94E00E9420378DE093E00E94A6
:10114000203759DF62DE80E090E0089554DFB0DEA2
:1011500080E090E008950F931F93CF93DF930E9458
:10116000F2198C01C0E0D0E0BE01C8010E94CB188A
:10117000882321F0BE01C8010E94B0192196C13E0A
:10118000D10591F783E095E00E94203734DF3DDE02
:1011900080E090E0DF91CF911F910F9108952BDFB8
:1011A000FC01148680E090E00895CF93DF9385E4FE
:1011B00018D3EC0120DF91E0CD2B09F490E090935F
:1011C0007B0B84E40ED3EC0116DF91E0CD2B09F408
:1011D00090E090937C0B83E404D3EC010CDF91E06E
:1011E000CD2B09F490E090937D0B82E4FAD2EC01D0
:1011F00002DF91E0CD2B09F490E090937E0B81E427
:10120000F0D2EC01F8DE91E0CD2B09F490E0909360
:101210007F0B80E4E6D2EC01EEDE91E0CD2B09F409
:1012200090E09093800BDF91CF91089587E095E057
:101230000E942037E0DEB9DFDEDEF9DD0E94AC1867
:1012400040E050E068E070E00E94CE280E94AC18B8
:1012500040E050E069E070E00E94CE280E94AC18A7
:1012600040E050E06AE070E00E94CE280E94AC1896
:1012700040E050E06DE070E00E94CE2880E090E019
:1012800008951F920F920FB60F9211240BB60F9272
:101290002F933F934F935F936F937F938F939F937E
:1012A000AF93BF93EF93FF9348E251E064E271E0A4
:1012B00080E090E08DDCFF91EF91BF91AF919F9125
:1012C0008F917F916F915F914F913F912F910F90EF
:1012D0000BBE0F900FBE0F901F9018951F920F928C
:1012E0000FB60F9211240BB60F922F933F934F938B
:1012F0005F936F937F938F939F93AF93BF93EF937E
:10130000FF9348EA50E064EA70E083E090E060DC3C
:10131000FF91EF91BF91AF919F918F917F916F91CD
:101320005F914F913F912F910F900BBE0F900FBE89
:101330000F901F9018951F920F920FB60F921124C5
:101340000BB60F922F933F934F935F936F937F93BF
:101350008F939F93AF93BF93EF93FF9348E950E030
:1013600064E970E082E090E033DCFF91EF91BF919F
:10137000AF919F918F917F916F915F914F913F912D
:101380002F910F900BBE0F900FBE0F901F901895CE
:101390001F920F920FB60F9211240BB60F922F933C
:1013A0003F934F935F936F937F938F939F93AF93ED
:1013B000BF93EF93FF9348E850E064E870E081E06A
:1013C00090E006DCFF91EF91BF91AF919F918F91DB
:1013D0007F916F915F914F913F912F910F900BBE35
:1013E0000F900FBE0F901F901895089580E090E029
:1013F0000895FC01538D448D252F30E0842F90E01B
:10140000821B930B541710F0CF96089501970895FF
:10141000FC01918D828D981761F0828DDF01A80FFC
:10142000B11D5D968C91928D9F5F9F73928F90E01E
:1014300008958FEF9FEF0895FC01918D828D98178D
:1014400031F0828DE80FF11D858D90E008958FEFCA
:101450009FEF0895FC01918D228D892F90E0805C93
:101460009F4F821B91098F739927089585E99BE00F
:10147000F1DF21E0892B09F420E0822F0895FC019F
:10148000848DDF01A80FB11DA35ABF4F2C91848D0D
:1014900090E001968F739927848FA689B7892C9342
:1014A000A089B1898C9180648C93938D848D9813DD
:1014B00006C00288F389E02D80818F7D80830895A6
:1014C000EF92FF920F931F93CF93DF93EC0181E094
:1014D000888F9B8D8C8D981305C0E889F989808150
:1014E00085FD23C0F62E0B8D10E00F5F1F4F0F738D
:1014F0001127E02E8C8DE8120BC00FB607FCFACF37
:10150000E889F989808185FFF5CFCE01B8DFF2CF78
:101510008B8DFE01E80FF11DE35AFF4FF0820B8F18
:10152000EA89FB898081806207C0EE89FF89608338
:10153000E889F98980818064808381E090E0DF918F
:10154000CF911F910F91FF90EF900895CF93DF936C
:10155000EC01888D8823C1F0EA89FB89808185FDB3
:1015600005C0A889B9898C9186FD0EC00FB607FC0D
:10157000F5CF808185FFF2CFA889B9898C9185FF4D
:10158000EDCFCE017CDFE8CFDF91CF91089580E0F1
:1015900090E0892B19F06ADF811125C080E090E08E
:1015A000892B41F080E090E0892B21F00E9400001F
:1015B00081111CC080E090E0892B41F080E090E038
:1015C000892B21F00E940000811113C080E090E07F
:1015D000892BA1F080E090E0892B81F00E9400002F
:1015E00081110AC008950E940000D8CF0E94000017
:1015F000E1CF0E940000EACF0C940000089590E033
:10160000FC013197E231F10508F04EC08827EE5811
:10161000FF4F8F4F0C94BA4E809180008F7703C09C
:10162000809180008F7D809380000895809180005C
:10163000877FF9CF84B58F7702C084B58F7D84BD55
:1016400008958091B0008F7703C08091B0008F7DA6
:101650008093B0000895809190008F7707C08091AB
:1016600090008F7D03C080919000877F80939000D1
:1016700008958091A0008F7707C08091A0008F7D92
:1016800003C08091A000877F8093A000089580917F
:1016900020018F7707C0809120018F7D03C080914A
:1016A0002001877F8093200108953FB7F8948091AF
:1016B000880B9091890BA0918A0BB0918B0B26B56A
:1016C000A89B05C02F3F19F00196A11DB11D3FBF7A
:1016D000BA2FA92F982F8827820F911DA11DB11D08
:1016E000BC01CD0142E0660F771F881F991F4A9504
:1016F000D1F70895EBE0F1E08081877F8083089542
:10170000EBE0F1E080818860808308958E980895F1
:101710008E9A089514980895149A089588980895B3
:10172000889A08951F920F920FB60F9211240BB64C
:101730000F922F933F934F935F936F937F938F936A
:101740009F93AF93BF93EF93FF9385E99BE097DE61
:10175000FF91EF91BF91AF919F918F917F916F9189
:101760005F914F913F912F910F900BBE0F900FBE45
:101770000F901F9018951F920F920FB60F92112481
:101780000BB60F922F938F939F93EF93FF93E0915C
:10179000A50BF091A60B8081E091AB0BF091AC0B07
:1017A00082FD12C090818091AE0B8F5F8F7320916C
:1017B000AF0B821751F0E091AE0BF0E0EB56F44F17
:1017C000958F8093AE0B01C08081FF91EF919F9127
:1017D0008F912F910F900BBE0F900FBE0F901F9007
:1017E0001895CF93DF93282F30E0F901E953FB4F91
:1017F0008491F901E55CFB4FD491F901EF57FB4F60
:10180000C491CC2389F08111FADEEC2FF0E0EE0FC9
:10181000FF1FE95DFA4FA591B491EC91ED2381E0B2
:1018200090E021F480E002C080E090E0DF91CF9171
:1018300008951F93CF93DF93282F30E0F901E953E8
:10184000FB4F8491F901E55CFB4FD491F901EF570F
:10185000FB4FC491CC23C1F0162F8111D0DEEC2FA9
:10186000F0E0EE0FFF1FE35FFA4FA591B4918FB741
:10187000F894111105C09C91ED2FE095E92302C069
:10188000EC91ED2BEC938FBFDF91CF911F910895D9
:1018900060E0FC018385CDCF60E0FC018581C9CF8C
:1018A00061E0FC018385C5CF61E0FC018581C1CF8A
:1018B000CF93DF9390E0FC01E55CFB4F2491FC01AA
:1018C000EF57FB4F8491882361F190E0880F991FB7
:1018D000FC01EF5DFB4FC591D491FC01E35FFA4F32
:1018E000A591B491611109C09FB7F89488812095A2
:1018F00082238883EC912E230BC0623061F49FB762
:10190000F8943881822F809583238883EC912E2B45
:101910002C939FBF06C08FB7F894E8812E2B2883A5
:101920008FBFDF91CF9108958230910538F0880FF5
:10193000991F880F991F05970197F1F708958F92C6
:101940009F92AF92BF92CF92DF92EF92FF926B0184
:101950007C01ABDE4B015C01C114D104E104F10454
:10196000E9F0A3DEDC01CB0188199909AA09BB09BA
:10197000883E9340A105B10578F321E0C21AD10851
:10198000E108F10888EE880E83E0981EA11CB11CC6
:10199000C114D104E104F10421F7DECFFF90EF90F0
:1019A000DF90CF90BF90AF909F908F9008952FB70A
:1019B000F8946091840B7091850B8091860B9091C7
:1019C000870B2FBF08951F920F920FB60F9211240D
:1019D0002F933F938F939F93AF93BF938091840BEB
:1019E0009091850BA091860BB091870B3091830B62
:1019F00023E0230F2D3720F40196A11DB11D05C052
:101A000026E8230F0296A11DB11D2093830B80931E
:101A1000840B9093850BA093860BB093870B8091DA
:101A2000880B9091890BA0918A0BB0918B0B01963A
:101A3000A11DB11D8093880B9093890BA0938A0BF5
:101A4000B0938B0BBF91AF919F918F913F912F914D
:101A50000F900FBE0F901F9018951F920F920FB608
:101A60000F9211240BB60F922F933F934F935F93D6
:101A70006F937F938F939F93AF93BF93EF93FF9356
:101A8000E0912E07F0912F071995FF91EF91BF91EB
:101A9000AF919F918F917F916F915F914F913F9106
:101AA0002F910F900BBE0F900FBE0F901F901895A7
:101AB000CF93DF93FC01A489B589C08DD18D208996
:101AC000318942895389A03187E2B80759F01A1643
:101AD0001B0644F40E947D4D20E137E240E050E0D7
:101AE0000E94574DDE010E947D4DDF91CF910895F8
:101AF000FC0181E090E0938F828F11821082158229
:101B00001482108A118A128A138A178A168A80E12F
:101B100097E2958B848B128610861486158616861E
:101B2000178608958EBD00000DB407FEFDCF8EB55B
:101B30000895CF92DF92EF92FF920F931F93CF936E
:101B4000DF93EC0160E086E174DE8A8D9B8D24E0FA
:101B5000880F991F2A95E1F78F60E4DF83E290E018
:101B60000197F1F704E010E0C12CD12C7601FE2C96
:101B7000ED2CDC2CCC2481E0D5DFC82A01501109E2
:101B8000B1F761E086E155DEC88AD98AEA8AFB8A24
:101B9000DF91CF911F910F91FF90EF90DF90CF9049
:101BA0000895CF93DF93EC01FC01E759FF4F1082BA
:101BB000379781E0808360E08D813BDE8F85988957
:101BC000892B29F060E08B85DF91CF9132CEDF91B8
:101BD000CF910895CF93DF93EC018B8902DE2E899C
:101BE00030E08217930711F48F8901C080E0DF9104
:101BF000CF910895CF93DF93EC018989F2DD2E898F
:101C000030E08217930711F48F8901C080E0DF91E3
:101C1000CF910895CF93DF93EC018DA5882311F028
:101C200061E001C060E08F8104DE8EA5882329F089
:101C30008FA5882311F061E001C060E08D85DF9100
:101C4000CF91F7CDCF93DF93EC018DA5882311F0D1
:101C500060E001C061E08F81ECDD8EA5882329F072
:101C60008FA5882311F060E001C061E08D85DF91D0
:101C7000CF91DFCDCF93DF93EC0161E08985D9DD92
:101C80008EA5882319F061E08F85D3DDC959DF4F18
:101C90001882DF91CF910895CF93DF93EC0160E03C
:101CA0008985C7DD8EA5882319F060E08F85C1DDA9
:101CB000C959DF4F81E08883DF91CF910895CF929A
:101CC000DF92EF92FF920F931F93CF93DF93FC016C
:101CD00042AF53AF64AF75AFDC01DE964D935D93B9
:101CE0006D937C93139714960D931D932D933C93B2
:101CF0001397EC01CA5BDF4FE88284A9882351F077
:101D000084A581114BC037FF05C01D921D921D9205
:101D10001C92139745A956A967A970AD141615060C
:101D20001606170634F581AD882319F10D911D9122
:101D30002D913C9113976801790137FF07C0CC249E
:101D4000DD247601C01AD10AE20AF30A4C155D05BA
:101D50006E057F0574F437FF07C070956095509548
:101D600041955F4F6F4F7F4F4D935D936D937C9384
:101D70001397DF01A15BBF4F1D921D921D921C9214
:101D80001397E15AFF4F81E08083DF91CF911F913C
:101D90000F91FF90EF90DF90CF90089510161106ED
:101DA000120613060CF4B1CFB5CF0F931F93CF9348
:101DB000DF938C01D62FFC018589811109C0C801F0
:101DC00019DFC82FC80106DFD11108C08C2F06C04B
:101DD000C80100DFC82FC8010DDFF6CFDF91CF911A
:101DE0001F910F910895CF93DF93EC01FC01E75908
:101DF000FF4F81E0808339978081B297882341F03B
:101E000080819181A281B3810196A11DB11D07C07E
:101E100080819181A281B3810197A109B109808359
:101E20009183A283B383FE01E459FF4F2081318166
:101E3000DE01A659BF4FC9019595879520FD03C0C6
:101E4000ED91FC910DC0FE01E80FF91F0190F081AA
:101E5000E02D2D913C91E20FF31F0190F081E02DD8
:101E60008C0F9D1F19958F859889892B11F1FE0183
:101E7000E059FF4F20813181DE01A259BF4FC901D6
:101E80009595879520FD03C0ED91FC910DC0FE0155
:101E9000E80FF91F0190F081E02D2D913C91E20FA8
:101EA000F31F0190F081E02D8C0F9D1FDF91CF91EA
:101EB0001994DF91CF9108958F929F92AF92BF9224
:101EC000CF92DF92EF92FF920F931F93CF93DF9306
:101ED000EC01FC01E15BFF4F6081718182819381A4
:101EE0000E94294C6B017C0168A979A98AA99BA948
:101EF0000E942B4C9B01AC0160E074E284E799E402
:101F00000E94194E4B015C01FE01E55AFF4F6081B2
:101F10007181828193810E94294C9B01AC01C50192
:101F2000B4010E94194E4B015C018E010D5A1F4FE6
:101F300020E030E040E05FE30E948A4C9B01AC016E
:101F4000C701B6010E94B54D0E94864EF80160831C
:101F5000718382839383C95ADF4FA5019401C7011E
:101F6000B6010E94B54D0E94864E688379838A83AC
:101F70009B83DF91CF911F910F91FF90EF90DF90A6
:101F8000CF90BF90AF909F908F9008950F931F9325
:101F9000CF93DF93FC01E759FF4F20812223B9F053
:101FA0007A97008111812281338138964081518155
:101FB00062817381041715072607370710F1EC01BA
:101FC000F0DDCE01DF91CF911F910F9175CFFC0114
:101FD000E15AFF4F20812223A1F0709700811181E7
:101FE000228133813496408151816281738104174B
:101FF00015072607370728F0DF91CF911F910F9122
:10200000F2CEDF91CF911F910F9108952F923F92C1
:102010004F925F926F927F928F929F92AF92BF92F8
:10202000CF92DF92EF92FF920F931F93CF93DF93A4
:10203000CDB7DEB762970FB6F894DEBF0FBECDBF47
:102040008C017C0126E4E20EF11CD7018C919801F1
:10205000205A3F4FF801EF59FF4F6F01A801425C32
:102060005F4F4A0114971D01882341F0F80184A5B0
:10207000D9018C9381E0F60180832FC0DA014D9164
:102080005D916D917C91F10180819181A281B381FB
:10209000BB24B394481759076A077B070CF0B12C8F
:1020A000F901B08277FF07C0709560955095419512
:1020B0005F4F6F4F7F4FB7FF07C0B095A0959095CA
:1020C00081959F4FAF4FBF4F21E0481759076A07CF
:1020D0007B070CF420E0D6012C93F4014081518160
:1020E00062817381411551056105710559F4F8014B
:1020F000848D958DA68DB78DE55AFF4F8083918392
:10210000A283B383F10180819181A281B381F8011F
:1021100042AC53AC64AC75AC9801215A3F4F5901A5
:10212000481659066A067B0634F4481759076A07A9
:102130007B077CF00AC084159505A605B7052CF42D
:1021400084179507A607B70724F0D7018C91882339
:10215000D9F0F50180818823B9F0D7018C918111E4
:1021600005C0F701808181110FC006C060E0C80181
:102170001CDE8111F6CF17C0D6016C9181E0682773
:10218000C80113DE882379F0D5011C9260E0C801F4
:102190000CDE882309F4C4C1F801FE961082118276
:1021A00012821382BDC1D80194962D913D914D911B
:1021B0005C91979729833A834B835C8358962D9142
:1021C0003D914D915C915B972D833E834F83588762
:1021D0005C962D913D914D915C915F9729873A874F
:1021E0004B875C87F10180819181A281B381F801E5
:1021F000FE96C080D180E280F380F80142AD53ADFD
:1022000064AD75ADED59FF4F1082319610823801E3
:10221000F5E66F0E711CF301108298012A593F4FA9
:10222000F9011082329610824C015D01841A950AE0
:10223000A60AB70AB7FE08C0B094A0949094809400
:10224000811C911CA11CB11C481759076A077B0708
:102250002CF4C41AD50AE60AF70A04C0C81AD90A27
:10226000EA0AFB0AD501C401B595A795979587950C
:102270008D879E87AF87B88BD801A859BF4F1D01A6
:10228000F7FC05C08C149D04AE04BF044CF4F801A7
:1022900000A0F1A1E02DFA8BE98B81E0D9011BC0F0
:1022A0002D853E854F8558892C153D054E055F05CA
:1022B00008F454C089819A81AB81BC818C159D053D
:1022C000AE05BF0564F42D813E812F5F3F4F3A8BF1
:1022D000298B81E0D3018C93F10180839EC0C701DB
:1022E000B6010E942B4C2B013C0169817A818B81C4
:1022F0009C810E942B4C9B01AC01C301B2010E9446
:10230000194E2B013C016D817E818F819885298535
:102310003A854B855C85621B730B840B950B0E9481
:102320002B4C9B01AC01C301B2010E948A4C2B01D2
:102330003C0169857A858B859C850E942B4C9B018D
:10234000AC01C301B2010E94B54D0E94814E7A8B4F
:10235000698B81E0F801ED59FF4F5CC0D501C401E4
:1023600029813A814B815C81821B930BA40BB50BB5
:10237000C816D906EA06FB065CF42D813E812E5F65
:102380003F4F3A8B298B81E0F801EB59FF4F42C058
:10239000C501B4016C197D098E099F090E942B4C5F
:1023A0002B013C0169817A818B819C810E942B4C9D
:1023B0009B01AC01C301B2010E94194E2B013C01EB
:1023C0006D817E818F81988529853A854B855C85D5
:1023D000621B730B840B950B0E942B4C9B01AC0171
:1023E000C301B2010E948A4C2B013C0169857A85A8
:1023F0008B859C850E942B4C9B01AC01C301B201D3
:102400000E94B54D0E94814E7A8B698B81E0F80164
:10241000EC59FF4F8083D1018C93F801848188238C
:10242000A9F0C5DAD80112964D905C901397052C4F
:10243000000C66087708DC01CB0184199509A60910
:10244000B709893E9340A105B10568F4F801E55A42
:10245000FF4F29893A89C901A0E0B0E080839183C8
:10246000A283B38393CEA3DAD80113967C936E93A1
:10247000129788E594E00E9420378EE095E00E9454
:10248000203760E070E0CB010E946C3784E195E07A
:102490000E942037C701B6010E946C378AE195E09F
:1024A0000E942037C501B4010E946C3780E295E09C
:1024B0000E9420374AE06D857E858F8598890E942D
:1024C000213787E295E00E94203769817A818B81EC
:1024D0009C810E946C378DE295E00E9420376985CF
:1024E0007A858B859C850E946C3783E395E00E94FA
:1024F00020376D817E818F8198850E946C3789E3BA
:1025000095E00E94203781E095E00E94203789897C
:102510009A890E94623880ED93E00E94203796CF1E
:1025200062960FB6F894DEBF0FBECDBFDF91CF919C
:102530001F910F91FF90EF90DF90CF90BF90AF90E1
:102540009F908F907F906F905F904F903F902F90D3
:102550000895603E710508F0D8C3FB018827EC5749
:10256000FF4F8F4F0C94BA4E81E090E0A0E0B0E0B6
:102570008093320790933307A0933407B0933507C5
:10258000089510923607109237071092380710926C
:102590003907089510923A0710923B0710923C07B2
:1025A00010923D07089581E090E0A0E0B0E08093B4
:1025B0003E0790933F07A0934007B09341070895CB
:1025C0001092420710924307109244071092450759
:1025D000089583E090E0A0E0B0E0809346079093F8
:1025E0004707A0934807B0934907089588E790E00C
:1025F000A0E0B0E080935E0790935F07A093600730
:10260000B0936107089588E790E0A0E0B0E0809380
:10261000620790936307A0936407B09365070895DA
:1026200088E790E0A0E0B0E08093660790936707AA
:10263000A0936807B0936907089510926E071092EF
:102640006F07109270071092710708951092720729
:10265000109273071092740710927507089581E025
:1026600090E0A0E0B0E08093760790937707A09386
:102670007807B0937907089510927A0710927B0734
:1026800010927C0710927D07089510927E07109299
:102690007F07109280071092810708951092820799
:1026A0001092830710928407109285070895109264
:1026B000860710928707109288071092890708955D
:1026C00010928A0710928B0710928C0710928D0738
:1026D000089510928E0710928F0710929007109213
:1026E00091070895109296071092970710929807F5
:1026F00010929907089510929A0710929B071092D2
:102700009C0710929D07089510929E0710929F07B4
:102710001092A0071092A10708951092AE07109290
:10272000AF071092B0071092B10708951092B20748
:102730001092B3071092B4071092B5070895109243
:10274000B6071092B7071092B8071092B90708950C
:1027500081E090E0A0E0B0E08093C2079093C307CF
:10276000A093C407B093C507089581E090E0A0E06E
:10277000B0E08093C6079093C707A093C807B093B3
:10278000C90708958CE291E0A0E0B0E08093D607FD
:102790009093D707A093D807B093D90708958CE2F8
:1027A00091E0A0E0B0E08093DA079093DB07A0937C
:1027B000DC07B093DD0708958CE291E0A0E0B0E083
:1027C0008093DE079093DF07A093E007B093E107C3
:1027D00008951092E6071092E7071092E80710920A
:1027E000E90708951092EA071092EB071092EC07A0
:1027F0001092ED0708951092EE071092EF071092D5
:10280000F0071092F10708951092FE071092FF074B
:102810001092000810920108089510920208109278
:1028200003081092040810920508089581E090E0D2
:10283000A0E0B0E08093060890930708A0930808F2
:10284000B0930908089585E090E0A0E0B0E080939F
:102850000E0890930F08A0931008B09311080895E4
:1028600085E090E0A0E0B0E0809312089093130818
:10287000A0931408B0931508089589E190E0A0E0B2
:10288000B0E08093160890931708A0931808B093AF
:102890001908089582E390E0A0E0B0E08093260854
:1028A00090932708A0932808B0932908089582E3FD
:1028B00090E0A0E0B0E080932A0890932B08A093CA
:1028C0002C08B0932D08089582E390E0A0E0B0E0DA
:1028D00080932E0890932F08A0933008B09331086E
:1028E000089582E390E0A0E0B0E0809336089093F2
:1028F0003708A0933808B0933908089582E390E030
:10290000A0E0B0E080933A0890933B08A0933C0885
:10291000B0933D08089582E390E0A0E0B0E080939A
:102920003E0890933F08A0934008B0934108089553
:1029300080E991E0A0E0B0E080934E0890934F08CA
:10294000A0935008B0935108089580E991E0A0E069
:10295000B0E08093520890935308A0935408B0932A
:102960005508089580E991E0A0E0B0E08093560812
:1029700090935708A0935808B0935908089510925F
:102980005E0810925F081092600810926108089526
:102990001092620810926308109264081092650801
:1029A00008951092660810926708109268081092B5
:1029B00069080895109276091092770910927809A3
:1029C00010927909089510927A0910927B09109259
:1029D0007C0910927D09089510927E0910927F095A
:1029E000109280091092810908951092C6081092E1
:1029F000C7081092C8081092C90808951092CA0812
:102A00001092CB081092CC081092CD080895109225
:102A1000CE081092CF081092D0081092D1080895D5
:102A20001092D6081092D7081092D8081092D908A0
:102A300008951092DA081092DB081092DC081092C8
:102A4000DD0808951092DE081092DF081092E00869
:102A50001092E108089585E090E0A0E0B0E0809356
:102A6000EE089093EF08A093F008B093F108089552
:102A700085E090E0A0E0B0E08093F2089093F30846
:102A8000A093F408B093F508089585E090E0A0E0E5
:102A9000B0E08093F6089093F708A093F808B093FD
:102AA000F908089584EB95E1A0E0B0E08093FE087A
:102AB0009093FF08A0930009B0930109089584EB57
:102AC00095E1A0E0B0E08093020990930309A09300
:102AD0000409B0930509089584EB95E1A0E0B0E006
:102AE0008093060990930709A0930809B0930909F8
:102AF000089585E090E0A0E0B0E0809316099093FF
:102B00001709A0931809B0931909089585E090E07A
:102B1000A0E0B0E080931A0990931B09A0931C09D0
:102B2000B0931D09089585E090E0A0E0B0E08093A7
:102B30001E0990931F09A0932009B09321090895BD
:102B4000109226091092270910922809109229093B
:102B5000089510922A0910922B0910922C091092B4
:102B60002D09089510922E0910922F091092300904
:102B700010923109089510923E0910923F09109267
:102B80004009109241090895109242091092430998
:102B90001092440910924509089510924609109226
:102BA0004709109248091092490908951092560A4F
:102BB0001092570A1092580A1092590A08958CE3FD
:102BC00090E0A0E0B0E080935A0A90935B0AA09353
:102BD0005C0AB0935D0A089581E090E0A0E0B0E067
:102BE00080935E0A90935F0AA093600AB093610A93
:102BF00008951092660A1092670A1092680A10925D
:102C0000690A08958CE390E0A0E0B0E080936A0A3E
:102C100090936B0AA0936C0AB0936D0A089581E0BB
:102C200090E0A0E0B0E080936E0A90936F0AA093CA
:102C3000700AB093710A089510927E0A10927F0A6A
:102C40001092800A1092810A08958CE390E0A0E02F
:102C5000B0E08093820A9093830AA093840AB09391
:102C6000850A089581E090E0A0E0B0E08093860AB4
:102C70009093870AA093880AB093890A08951092C6
:102C80008E0A10928F0A1092900A1092910A08955B
:102C90008CE390E0A0E0B0E08093920A9093930AD6
:102CA000A093940AB093950A089581E090E0A0E083
:102CB000B0E08093960A9093970AA093980AB093F5
:102CC000990A08951092A60A1092A70A1092A80ACB
:102CD0001092A90A08958CE390E0A0E0B0E0809300
:102CE000AA0A9093AB0AA093AC0AB093AD0A0895D8
:102CF00081E090E0A0E0B0E08093AE0A9093AF0A4C
:102D0000A093B00AB093B10A0895660F771F660FBB
:102D1000771FFB01EE5CF84F108211821282138242
:102D200008958FEF9FEF08954F925F926F927F9279
:102D30008F929F92AF92BF92CF92DF92EF92FF92CB
:102D4000CF93DF935B01EB01CC0FDD1FCE010E941F
:102D5000414D482E512C612C712CCE0101960E94C0
:102D6000414DC82ED12CE12CF12C8DE8A81AB108C8
:102D700083E0A816B10488F5CE0144960E94414D27
:102D8000882E912CA12CB12CCE0145960E94414D4C
:102D9000482F50E060E070E08FEF88169104A104A6
:102DA000B104A9F44F3F51056105710581F48FEF1E
:102DB000481651046104710481F48FEFC816D104E0
:102DC000E104F10451F46FEF7FEFCB012BC04038E9
:102DD0005105610571056CF0F6CF80E8C816D10485
:102DE000E104F10484F740E050E0BA01812C912C19
:102DF0005401FE2CED2CDC2CCC24C40CD51CE61C80
:102E0000F71C540199248824C80CD91CEA1CFB1C0B
:102E1000742F662755274427CB01BA016C0D7D1D01
:102E20008E1D9F1DDF91CF91FF90EF90DF90CF908F
:102E3000BF90AF909F908F907F906F905F904F90DA
:102E400008950C9413470C9413470C9413470C9457
:102E500013470C9413474F925F926F927F928F9219
:102E60009F92AF92BF92CF92DF92EF92FF920F9319
:102E70001F93CF93DF9300D01F92CDB7DEB7FB0136
:102E80001689078982889388A684B784C284D384EC
:102E9000E484F58446805780608471844281538144
:102EA0006481758149835A836B837C830E9459288E
:102EB0001F921F921F920F931F93930182014981CA
:102EC0005A816B817C81BCD30F900F900F900F9033
:102ED0000F9080E090E00F900F900F900F90DF9197
:102EE000CF911F910F91FF90EF90DF90CF90BF9007
:102EF000AF909F908F907F906F905F904F900895CC
:102F000080918C0B81113FC081E080938C0B0E94DB
:102F10005928FC01E159FF4F2081222369F0709765
:102F200040815181628173814F5F5F4F6F4F7F4F4F
:102F30004083518362837383FC01E751FF4F2081FB
:102F4000222369F0709740815181628173814F5FC4
:102F50005F4F6F4F7F4F4083518362837383FC01C8
:102F6000ED59FE4F2081222361F07097808191817D
:102F7000A281B3810196A11DB11D80839183A2839B
:102F8000B38310928C0B08950F931F93CF93DF930D
:102F90008B01EA01AB01415051094433510508F05E
:102FA000D4C02230310508F0D0C048E3429FF00180
:102FB000439FF00D1124E60FF71FE80FF91F81E082
:102FC0008083232B11F46C2F07C061E0802F0E94B7
:102FD000580C209739F460E0802F0E94190C80E093
:102FE00090E0B5C0CF3FD10509F4ADC0F801E95379
:102FF000FB4FE4918E2F90E0FC013197E231F10517
:1030000008F09DC08827EC59FE4F8F4F0C94BA4EA4
:1030100084B5806884BDC7BDE2CF84B5806284BDBD
:10302000C8BDDDCF80918000806880938000D09300
:103030008900C0938800D3CF809180008062809304
:103040008000D0938B00C0938A00C9CF809180000C
:10305000886080938000D0938D00C0938C00BFCF98
:103060008091B00080688093B000C093B300B7CF68
:103070008091B00080628093B000C093B400AFCF65
:1030800080919000806880939000D0939900C093C5
:103090009800A5CF80919000806280939000D0939B
:1030A0009B00C0939A009BCF809190008860809392
:1030B0009000D0939D00C0939C0091CF8091A00080
:1030C00080688093A0008091A0008F7B8093A000F7
:1030D000D093A900C093A80082CF8091A000806205
:1030E0008093A000D093AB00C093AA0078CF8091CA
:1030F000A00088608093A000D093AD00C093AC0086
:103100006ECF80912001806880932001D0932901A7
:10311000C093280164CF80912001806280932001B8
:10312000D0932B01C0932A015ACF8091200188604F
:1031300080932001D0932D01C0932C0150CFC03833
:10314000D1050CF448CF61E047CF81E090E0DF91FA
:10315000CF911F910F91089580918F0B9091900BBB
:10316000892BA1F480E790E00E947E46FC01F9964D
:103170009C0123593F4FDF01D8971C921192E2170F
:10318000F307C9F79093900B80938F0B80918F0B6F
:103190009091900B0895683671050CF050C065361B
:1031A00071050CF08CC06C32710554F569327105F3
:1031B0000CF085C06831710594F46F3071050CF026
:1031C0007EC06630710544F4623071050CF077C042
:1031D000672B09F072C073C06B5071096BC062320B
:1031E00071053CF46F3171050CF069C069517109CA
:1031F00061C0645271096230710508F05EC05FC041
:103200006A3371057CF4673371050CF058C06D3278
:1032100071050CF452C0603371050CF450C0635357
:10322000710948C0643471053CF4613471050CF0D7
:1032300046C06D5371093EC0675471093BC0603987
:103240007105F4F46D387105D4F56637710564F4D1
:1032500063377105A4F5693671057CF16C3671052B
:1032600074F16F56710926C06038710534F46D37FA
:1032700071052CF5695771091DC0635871091AC091
:10328000603D710564F46D3C7105CCF461397105E4
:10329000A4F0643971059CF0695C71090BC06A3D4A
:1032A000710534F4673D710554F4635D710902C022
:1032B0006D5D71096330710510F080E0089581E063
:1032C0000895EF92FF920F931F93CF93DF9300D057
:1032D0001F92CDB7DEB78B017B01EE0CFF1C622F76
:1032E000C70129833A834B835C830E94494D29811E
:1032F0003A814B815C81992757FD9A95852F742FD0
:10330000632FC70101960E94494D0D58110929816B
:103310003A814B815C8103301105A8F4BA019927E9
:1033200077FD9095892FC70144960E94494D2981C8
:103330003A814B815C81652F772788279927C701C0
:1033400045960E94494D80E090E00F900F900F90BD
:103350000F90DF91CF911F910F91FF90EF90089503
:10336000CF92DF92EF92FF92CF93DF93EB0113DFC7
:10337000882359F1FE01EE0FFF1FEE0FFF1FEE5CD9
:10338000F84FC080D180E280F3808FE395E00E9407
:10339000203781E095E00E94203783E495E00E9489
:1033A0002037CE010E94623881E095E00E942037EC
:1033B00085E495E00E942037C701B6010E946C3772
:1033C0000E94FB070E94050704C089E894E00E9460
:1033D000203780E090E0DF91CF91FF90EF90DF9079
:1033E000CF900895EF92FF920F931F93CF93DF93A7
:1033F00080918D0B90918E0B892B09F066C084E033
:1034000090E00E947E46EC0160E070E08DDC1616D4
:1034100017067CF100E010E0B801CE01BCDE882385
:1034200019F0B801CE0195D80F5F1F4F013E11056D
:1034300099F792E3E92E97E0F92E00E010E0B80149
:10344000CE01A9DE882341F0F7012081318142813C
:103450005381B801CE0135DF0F5F1F4FF4E0EF0E4F
:10346000F11C0639110559F7D0938E0BC0938D0BC3
:103470002CC082E3E82E87E0F82E00E010E0B801CF
:10348000CE0189DE8823C1F0B801CE014DDCF70101
:1034900060837183828393836F3F7F4F8F4F9F4FF2
:1034A00059F4B801CE0155D8F7012081318142810C
:1034B0005381B801CE0105DF0F5F1F4FF4E0EF0E1F
:1034C000F11C013E1105D9F6CFCF80918D0B909163
:1034D0008E0BDF91CF911F910F91FF90EF90089588
:1034E0004F925F926F927F928F929F92AF92BF9214
:1034F000CF92DF92EF92FF920F931F93CF93DF93C0
:1035000000D01F92CDB7DEB76DDF40900E0850900F
:103510000F08609010087090110864DF8090120806
:1035200090901308A0901408B09015080E94FB0713
:10353000C090BA0AD090BB0AE090BC0AF090BD0AD5
:103540000E94FB07C701B6010E942B4C6B017C0156
:10355000C301B2010E942B4C9B01AC01C701B60113
:103560000E94194E2B013C016091BE0A7091BF0A66
:103570008091C00A9091C10A0E942B4C6B017C0182
:10358000C501B4010E942B4C9B01AC01C701B601DF
:103590000E94194EAB01BC0149835A836B837C8323
:1035A0000E9459281F921F921F921F921F92812CD6
:1035B000912CA12CB12CC12CD12C760149815A819E
:1035C0006B817C818A019B01B301A20139D00E94E9
:1035D00059281F921F921F921F921F9297018601D6
:1035E000B301A2012DD00E9459281F921F921F9251
:1035F0001F921F9297018601B701A60121D00FB635
:10360000F894DEBF0FBECDBF80E090E00F900F902A
:103610000F900F90DF91CF911F910F91FF90EF903E
:10362000DF90CF90BF90AF909F908F907F906F90E2
:103630005F904F900895089508950895089508950E
:103640002F923F924F925F926F927F928F929F92B2
:10365000AF92BF92CF92DF92EF92FF920F931F93A0
:10366000CF93DF93CDB7DEB7E4970FB6F894DEBF04
:103670000FBECDBF1C012A013B010F83188729878C
:103680003A872C960EAD1FAD2C97FC01E55AFD4FE5
:1036900060817181828193810E942B4C9B01AC01DE
:1036A000C301B2010E948A4C0E94814E6B8B7C8BBD
:1036B0008D8B9E8BF101E15AFD4F6081718182817A
:1036C00093810E942B4C9B01AC016F817885898589
:1036D0009A850E948A4C0E94814E6F8B788F898FC9
:1036E0009A8FF101ED59FD4F608171818281938143
:1036F0000E942B4C9B01AC01C701B6010E948A4C71
:103700000E94814E6B8F7C8F8D8F9E8F0E94D70C75
:103710006D877E878F87988BF101E452FE4F11826F
:1037200010823296118210823E96A114B10461F08B
:10373000C501A0E0B0E040815181628173818417AE
:103740009507A607B70714F0A080B180F101E051FA
:10375000FE4F8114910461F0C401A0E0B0E040810B
:1037600051816281738184179507A607B70714F00A
:1037700080809180F101EC50FE4F0115110561F040
:10378000C801A0E0B0E0408151816281738184175B
:103790009507A607B70714F0008111819101205FFA
:1037A0003F4F3A8B298BC501A0E0B0E0F10180A723
:1037B00091A7A2A7B3A72101FAE84F0E511CA12C93
:1037C000B12CD20158968D929D92AD92BC925B978E
:1037D0003101BCEF6B1ABEEF7B0A20E030E0F30151
:1037E000008F118F228F338F0E94FB070E94FB07EF
:1037F0000E94FB070E94FB074091BA0A5091BB0A46
:103800006091BC0A7091BD0A49AB5AAB6BAB7CAB03
:103810000E94FB078091BE0A9091BF0AA091C00A46
:10382000B091C10A8F839887A987BA870E94FB0746
:103830008090C20A9090C30AA090C40AB090C50AB2
:10384000F101E959FD4F10821182128213823496E0
:103850001082118212821382349610821182128297
:10386000138234961182108232961182108232961F
:1038700011821082329649A95AA96BA97CA940836A
:1038800051836283738334968F819885A985BA8525
:1038900080839183A283B383349680829182A282B3
:1038A000B3822D96EFAC2D970B891C892D893E890B
:1038B00089899A890E945F0E2E96EFAC2E970F8908
:1038C000188D298D3A8D4F81588569857A85C20179
:1038D0000E945F0E2F96EFAC2F970B8D1C8D2D8DB8
:1038E0003E8DB501A401C3010E945F0ED101519626
:1038F0001C92F101E557FF4F1082E658FF4F1082EE
:10390000C1010E94D639C1010E94DA3989899A8998
:103910000E942C39C2010E942C39C3010E942C390B
:10392000F101ED51FE4FFAA3E9A381E090E091830C
:1039300080837101FBE1EF1AFEEFFF0AD7018D933F
:103940009C93810109511E4FF8019183808341E0CE
:1039500050E069897A89C1010E940F27D7014D91F2
:103960005C91B201C1010E940F27F8014081518191
:10397000B301C1010E940F2711E0F101EE53FD4F89
:10398000108389899A890E944C0EC2010E944C0EB4
:10399000C3010E944C0E64E670E080E090E00E945B
:1039A0009F0CC10180529E4FDC011C9311961C9309
:1039B000A1014E515E4FFA0110832D96FFAD2D9758
:1039C000F1110FC02E962FAD2E97211105C02F9605
:1039D0003FAD2F97332339F1910121593F4FF90121
:1039E00010822E96FFAD2E97F11105C0910127513F
:1039F0003F4FF90110822F96FFAD2F97F11105C0AF
:103A000091012D593E4FF90110822D962FAD2D9722
:103A1000FC0120832E963FAD2E973C932F96EFAD61
:103A20002F97DA01EC9389899A890E940610C201C6
:103A30000E940610C3010E94061089899A890E947B
:103A40005C0FC2010E945C0FC3010E945C0F0E94C8
:103A5000FB07DC011C968C918B8B18861F82F10171
:103A6000E052FE4FF88FEF8B91012F513E4F3C8F6C
:103A70002B8FA1014E515E4F58A34F8FC1018D5125
:103A80009E4F98A78FA3D101AB51BE4FBAA7A9A74C
:103A90003796FCA7EBA7275531403CA32BA34E5DDF
:103AA00051095EA34DA3225C3F4F3EA72DA7425C68
:103AB0005F4F58AB4FA7EF89F88D808181110BC004
:103AC000AB8DBC8D8C91811106C0EF8DF8A18081EA
:103AD000882309F463C3FB89F11160C3C1010E940B
:103AE000B4394FA158A569897A89C1010E94682714
:103AF00049A55AA5B201C1010E9468274BA55CA542
:103B0000B301C1010E94682789899A890E94C60F62
:103B1000C2010E94C60FC3010E94C60FC1018E5888
:103B20009F4F9C878B87DC018C91882349F1898981
:103B30009A890E9406104101BDE58B1ABDEF9B0AD0
:103B40005101E9E6AE1AEDEFBE0A6101FEE4CF1ABB
:103B5000FDEFDF0A71012BE7E21A2DEFF20A810176
:103B600007581D4F910129593D4FA10142585E4F01
:103B700069897A89C1010E94E130AB85BC851C92BC
:103B8000F101E451FF4FFC87EB878081882339F1F5
:103B9000C2010E9406104101FCE58F1AFDEF9F0A49
:103BA000510125E6A21A2DEFB20A61013CE4C31AC5
:103BB0003DEFD30A710147E7E41A4DEFF40A8101A2
:103BC00003581D4F910125593D4FA10146565E4FA7
:103BD000B201C1010E94E130AB85BC851C92F101AC
:103BE000EA59FE4FFC87EB878081882339F1C301B6
:103BF0000E9406104101FBE58F1AFDEF9F0A51015B
:103C000021E6A21A2DEFB20A61013AE4C31A3DEF90
:103C1000D30A710143E7E41A4DEFF40A81010F570B
:103C20001D4F910121593D4FA1014A545E4FB301EF
:103C3000C1010E94E130AB85BC851C928101015914
:103C40001F4FF80180818823E9F1EE5DFD4F60810F
:103C50007181072E000C880B990B0E942B4C9B0145
:103C6000AC01F101E959FD4F60817181828193813D
:103C70000E94B24E181634F5D8011C9268E574E023
:103C800081010E521E4FC8010E94DA3861E875E0CA
:103C9000C8010E94DA3860ED73E0C8010E94DA388A
:103CA0002D96BFAD2D97BB2309F470C3C101825877
:103CB0009E4F0E946738F101E25BFF4F1082118234
:103CC00012821382810107511F4FD8018C918823E2
:103CD00009F43EC0F101ED56FD4F60817181072E60
:103CE000000C880B990B0E942B4C9B01AC01F1013D
:103CF000E559FD4F60817181828193810E94B24EAE
:103D0000181634F5D8011C9268E574E081010E5252
:103D10001E4FC8010E94DA3869EA75E0C8010E94A6
:103D2000DA3860ED73E0C8010E94DA382E96BFAD34
:103D30002E97BB2309F42FC3C10186569E4F0E94C4
:103D40006738EBA1FCA1FE961082118212821382C9
:103D500081010D591E4FF80180818823E9F1EE5C45
:103D6000FE4F60817181072E000C880B990B0E9419
:103D70002B4C9B01AC01F101E159FD4F6081718138
:103D8000828193810E94B24E181634F5D8011C929C
:103D900068E574E081010E521E4FC8010E94DA38B6
:103DA00061ED75E0C8010E94DA3860ED73E0C8018A
:103DB0000E94DA382F96BFAD2F97BB2309F4F0C2CB
:103DC000C1018A549E4F0E946738EDA1FEA1FE9664
:103DD000108211821282138260E089899A890E947E
:103DE000D50E882361F0F101E25BFF4F1082118252
:103DF00012821382C10182589E4F0E94673860E090
:103E0000C2010E94D50E882361F0ADA5BEA51D920A
:103E10001D921D921C921397C10186569E4F0E94BF
:103E2000673860E0C3010E94D50E882359F0EFA5E2
:103E3000F8A91082118212821382C1018A549E4F06
:103E40000E946738F101E159FF4F8081AF89B88D39
:103E50008C93E658FF4F8081EB8DFC8D8083F101C0
:103E6000ED59FE4F8081AF8DB8A18C93E551F140A3
:103E70004081518162817381EBA1FCA1FE9680801B
:103E80009180A280B380EDA1FEA1FE96C080D1807A
:103E9000E280F38049AB5AAB6BAB7CAB0E94FB0773
:103EA00049A95AA96BA97CA94093BA0A5093BB0AA5
:103EB0006093BC0A7093BD0A0E94FB078092BE0A01
:103EC0009092BF0AA092C00AB092C10A0E94FB075A
:103ED000C092C20AD092C30AE092C40AF092C50A04
:103EE000C1010E94D639EF89F88D8081882309F4B9
:103EF0004AC00E94D70C2D853E854F855889621790
:103F000073078407950760F40E94D70C2D853E85C2
:103F10004F8558896217730784079507A0F51EC05F
:103F20000E94D70C6B017C012D853E854F855889F9
:103F3000C21AD30AE40AF50AF101E15BFD4F2081C0
:103F4000318142815381A8EEB3E00E94734D6C151C
:103F50007D058E059F0508F428C2D6CF0E94D70C98
:103F60006B017C01F101E15BFD4F208131814281D8
:103F70005381A8EEB3E00E94734D6C157D058E054C
:103F80009F0508F412C2AB8DBC8D8C91882309F477
:103F90004AC00E94D70C2D853E854F8558896217EF
:103FA00073078407950760F40E94D70C2D853E8522
:103FB0004F8558896217730784079507A0F51EC0BF
:103FC0000E94D70C6B017C012D853E854F85588959
:103FD000C21AD30AE40AF50AF101ED5AFD4F208115
:103FE000318142815381A8EEB3E00E94734D6C157C
:103FF0007D058E059F0508F4EFC1D6CF0E94D70C32
:104000006B017C01F101ED5AFD4F2081318142812C
:104010005381A8EEB3E00E94734D6C157D058E05AB
:104020009F0508F4D9C1AF8DB8A18C91882309F4FC
:104030004AC00E94D70C2D853E854F85588962174E
:1040400073078407950760F40E94D70C2D853E8581
:104050004F8558896217730784079507A0F51EC01E
:104060000E94D70C6B017C012D853E854F855889B8
:10407000C21AD30AE40AF50AF101E95AFD4F208178
:10408000318142815381A8EEB3E00E94734D6C15DB
:104090007D058E059F0508F4B6C1D6CF0E94D70CCA
:1040A0006B017C01F101E95AFD4F20813181428190
:1040B0005381A8EEB3E00E94734D6C157D058E050B
:1040C0009F0508F4A0C185E99BE00E942A0A181602
:1040D00019068CF585E99BE00E94080A8F7D8534DE
:1040E000910549F567E475E0C1018E529E4F0E942B
:1040F000DA388EE493E00E9420370E94FB070E948A
:104100000507F101E159FF4F1082E658FF4F108279
:10411000E658FF4F1082AF89B88D1C92EB8DFC8D55
:104120001082AF8DB8A11C92B1E0BB8BE1E0F0E052
:10413000F887EF8304C02F813885232B81F06CE54D
:1041400075E0C1018E529E4F0E94DA38AF89B88D5A
:104150001C92EB8DFC8D1082AF8DB8A11C92C10119
:104160000E948436F101E252FE4F808191810196D6
:10417000918380838D3291400CF49DCCD101AA5261
:10418000BE4F8D919C911197892B09F094CC149678
:104190008D919C91892B09F44DC18DCC81010A52DE
:1041A0001E4FD8018D919C91892B21F0C1010E9455
:1041B0008436F7CF88E695E00E9420372D96BFAD74
:1041C0002D97BB2311F1EF81F885EF2BF1F4FB89DB
:1041D000F11142C08EE193E00E9420370E94FB075C
:1041E0000E9405072E962FAD2E97222381F18AE19A
:1041F00093E00E9420370E94FB070E9405072F963C
:104200003FAD2F9731111AC027C02E964FAD2E9774
:10421000442341F08F819885892B21F49B8991114A
:104220001BC0E5CF2F96AFAD2F97AA23A9F0EF8142
:10423000F885EF2B89F4FB89F1110EC086E193E03C
:104240000E9420370E94FB070E94050705C02F9699
:104250009FAD2F979111F2CF85E090E0A9A1BAA16F
:104260008D939C9391012B513E4F3E872D87D90111
:104270008D939C93810109511E4FF8019183808396
:1042800045E050E069897A89C101C9D5AD85BE850F
:104290004D915C91B201C101C2D5F80140815181BB
:1042A000B301C101BCD5C1010E94DE39F101E25B5D
:1042B000FF4F4081518162817381E658FF4FC0807A
:1042C000D180E280F380E658FF4F80809180A28009
:1042D000B38049AB5AAB6BAB7CAB0E94FB0749A9DF
:1042E0005AA96BA97CA94093BA0A5093BB0A609360
:1042F000BC0A7093BD0A0E94FB07C092BE0AD0920E
:10430000BF0AE092C00AF092C10A0E94FB078092A5
:10431000C20A9092C30AA092C40AB092C50AC1010F
:104320000E94D639C1010E94DA390E94FB070E941F
:104330005807C10105D6A9A1BAA11D921C92ED850D
:10434000FE8511821082D8011D921C9240E050E03F
:1043500069897A89C10163D5ED85FE8540815181E6
:10436000B201C1015CD5D8014D915C91B301C1018D
:1043700056D5C1010E94DE39BB89BB2309F457C160
:104380000E94FB0721E0FC01248751C1E1E0F0E03D
:10439000F887EF8397CCE1E0F0E0F887EF83D8CCA3
:1043A000E1E0F0E0F887EF8317CD6AE273E0810186
:1043B0000E521E4FC8010E94DA3860ED73E0C8014A
:1043C0000E94DA3869EF75E0C8010E94DA3822E00D
:1043D00030E038872F83D7CD66E273E081010E523B
:1043E0001E4FC8010E94DA3860ED73E0C8010E94D8
:1043F000DA386EE076E0C8010E94DA3842E050E038
:1044000058874F8310CE62E273E081010E521E4F37
:10441000C8010E94DA3860ED73E0C8010E94DA3802
:1044200063E276E0C8010E94DA3882E090E0988783
:104430008F8349CE11821082F101E452FE4F8081B8
:104440009181009749F46AE473E081010E521E4F96
:10445000C8010E94DA38C6C0019709F0D4C00E9492
:10446000FB078C01FC0180819181A281B381181628
:1044700019061A061B0644F081E090E0A0E0B0E0C7
:1044800080839183A283B383F80184819581A6817F
:10449000B781181619061A061B0644F081E090E051
:1044A000A0E0B0E084839583A683B783F80180857C
:1044B0009185A285B385181619061A061B0644F0C5
:1044C00081E090E0A0E0B0E080879187A287B38789
:1044D00062ED73E0CE0101960E9418396AEC74E037
:1044E000CE0101960E94DA386BED74E0CE010196A0
:1044F0000E94DA386091BA0A7091BB0A8091BC0AB6
:104500009091BD0A0E942B4C6B017C01D8016D91EA
:104510007D918D919C910E942B4C9B01AC01C70118
:10452000B6010E94194EAB01BC01CE0101960E945A
:10453000AA386BEE74E0CE0101960E94DA386091E1
:10454000BE0A7091BF0A8091C00A9091C10A0E9470
:104550002B4C6B017C01F801648175818681978108
:104560000E942B4C9B01AC01C701B6010E94194E61
:10457000AB01BC01CE0101960E94AA386BEF74E03A
:10458000CE0101960E94DA386091C20A7091C30A86
:104590008091C40A9091C50A0E942B4C6B017C014A
:1045A000D80118966D917D918D919C911B970E94D9
:1045B0002B4C9B01AC01C701B6010E94194EAB0107
:1045C000BC01CE0101960E94AA38BE016F5F7F4FE9
:1045D00081010E521E4FC8010E94E83889819A81DC
:1045E0000E9413470E94FB07BC01CE0101960E9466
:1045F000BF06BE016F5F7F4FC8010E94E838898106
:104600009A810E941347F101E452FE4F808191810B
:104610000196823091051CF49183808302C011823F
:104620001082F101E652FE4F1182108244CA86E7E1
:1046300095E00E9420378F8198850E94623880ED36
:1046400093E00E9420370E94FB072F81388530932A
:10465000310720933007C901E4960FB6F894DEBF06
:104660000FBECDBFDF91CF911F910F91FF90EF90C3
:10467000DF90CF90BF90AF909F908F907F906F9082
:104680005F904F903F902F900895CF92DF92EF92DE
:10469000FF920F931F93CF93DF937C016B018A01ED
:1046A000E9010E94F219F601EE0FFF1FEE0FFF1F46
:1046B000EE5CF84F80819181F701918380830E94A5
:1046C000F219000F111F000F111FF801EE5CF84FD7
:1046D00081E04081518162817381413051056105E2
:1046E000710509F080E0F70182870E94F219CC0F72
:1046F000DD1FCC0FDD1FCE5CD84F88819981AA8148
:10470000BB81F70182839383A483B58316821782CA
:1047100010861186DF91CF911F910F91FF90EF903E
:10472000DF90CF900895CF92DF92EF92FF920F9398
:104730001F93CF93DF93EC018AE190E09E8B8D8BEA
:104740008BE190E0988F8F8B89E190E09A8F898F31
:104750008FE090E09C8F8B8F8EE190E09E8F8D8F0D
:104760008EE090E098A38F8F85E490E09AA389A3D0
:1047700084E490E09CA38BA3FE01E657FF4F80E208
:1047800090E09683858381E290E0908787838FE134
:1047900090E0928781871486138616861586108A84
:1047A000178683E490E0928B818B82E490E0948B77
:1047B000838BE658FF4F83E290E09683858384E203
:1047C00090E09087878382E290E0928781871486C9
:1047D000138616861586108A178681E490E0928BE0
:1047E000818B80E490E0948B838BE152FF4F1182A8
:1047F0001082329611821082329611821082CE017E
:1048000083D5CE010E940C3ACE0182589E4F41E0E2
:1048100050E0FC01538F428FDE01A656BE4F24E0CC
:1048200030E05B963C932E935A976E01FAE4CF1AD0
:10483000FEEFDF0A28E030E0F601338F228F20E11F
:1048400030E0FC013183208321E130E03583248393
:104850002FEF3FEF33832283378326836285608780
:104860006385618767E170E011967C936E9368E1E0
:1048700070E015967C936E93149713963C932E9349
:10488000129717963C932E9316971A966C911A9737
:1048900018966C9318971B966C911B9719966C93AE
:1048A00019976DE170E0F601718360836CE170E04F
:1048B000758364833383228337832683628560878D
:1048C00063856187BE0168547D4FFB016081718102
:1048D0008E0104551D4FF801008111817E01FAE51A
:1048E000EF1AFDEFFF0AF701E080F180FC01F78A83
:1048F000E68A158B048B6130710519F4318F208F96
:1049000003C0FC01518F408FCE0186549D4FFC01A6
:10491000808191819E0122553D4FF9012081318195
:10492000AE0148555D4FFA014081518157965C9325
:104930004E93569755963C932E935497019719F49E
:104940008FEF9FEF02C081E090E059969C938E9389
:104950005897DE01A454BD4F8D919C9111971C97DF
:104960002D913C91C655DD4F48815981F601578BF9
:10497000468B358B248B019719F48FEF9FEF03C083
:1049800081E090E0F601918F808FDF91CF911F91B0
:104990000F91FF90EF90DF90CF9008952F923F926C
:1049A0004F925F926F927F928F929F92AF92BF923F
:1049B000CF92DF92EF92FF920F931F93CF93DF93EB
:1049C000CDB7DEB7CA57D1090FB6F894DEBF0FBE18
:1049D000CDBF8C01FC0110821182128213821482DD
:1049E0001582168217821086118612861386148607
:1049F0001586168617862C01F0E14F0E511CC20158
:104A00000E94503968018AE8C80ED11CC6010E9474
:104A100050397801ECEFEE1AEEEFFE0AC7010E9462
:104A200050393801F2E86F1AFEEF7F0AC3010E9485
:104A3000780D480186E6881A8EEF980AC4010E9414
:104A4000780D5801EAE4AE1AEEEFBE0AC5010E94E5
:104A5000780D62ED73E0C8018E529E4F0E941839A6
:104A6000F801E852FE4F11821082329611821082B4
:104A70003296118210823296118210823296108202
:104A800031961082319610823196118210823296C0
:104A900011821082329611821082329610823196E3
:104AA0001082319610823196108211821282138206
:104AB00034961082118212821382349610821182EF
:104AC00012821382349610821182128213823496DB
:104AD0001082118212821382349610821182128205
:104AE00013823496108211821282138234961082BD
:104AF00011821282138234961082118212821382E2
:104B0000349610821182128213823496108211829E
:104B1000128213823496108211821282138234968A
:104B200010821182128213823496108211821282B4
:104B3000138234961082118212821382349610826C
:104B40003196108231961082319610821182128233
:104B5000138234961082118212821382349610824C
:104B6000118212821382349610823196108231960D
:104B700010823196108231961082319610823196D1
:104B800010823196108231961082319610823196C1
:104B900010823196108231961082319610823196B1
:104BA00010823196108231961082319610823196A1
:104BB0001082319610823196108231961082319691
:104BC00010823196108231961082118212821382E5
:104BD00034961082118212821382349610821182CE
:104BE00012821382D801A55ABD4F8CE0EEE2F3E0A9
:104BF00001900D928A95E1F7F801E959FD4F108275
:104C000011821282138234961082118212821382D0
:104C1000349610821182128213823496118210828D
:104C20003296118210823296118210823296108250
:104C300011821282138234961082118212821382A0
:104C4000349610821182128213823496108211825D
:104C50001282138234961082118212821382349649
:104C6000108211821282138234961182108232963F
:104C70001182108232961182108232961082118235
:104C80001282138234961082118212821382349619
:104C90001082118212821382349610823196108211
:104CA00031961082319611821082329611821082D2
:104CB00032961182108232961182108232961182BF
:104CC00010823296118210823296118210823296B0
:104CD00011821082329611821082329611821082D5
:104CE000329611821082329611821082329611828F
:104CF00010823296118210821801FEE32F1AFDEF06
:104D00003F0AF1011082CE0101960E9450398AE7D4
:104D1000FE013196D20101900D928A95E1F7CE0104
:104D200001960E9450398AE7FE013196D601019022
:104D30000D928A95E1F7CE0101960E9450398AE7DB
:104D4000FE013196D70101900D928A95E1F788E531
:104D5000F801808B89E5F60180838AE5F70180837D
:104D6000CE0101960E94780D8CE1FE013196D301AF
:104D700001900D928A95E1F7CE0101960E94780D7F
:104D80008CE1FE013196D40101900D928A95E1F7F4
:104D9000CE0101960E94780D8CE1FE013196D5017D
:104DA00001900D928A95E1F7C801BDDCF1011082F6
:104DB000C658DF4F0FB6F894DEBF0FBECDBFDF91F0
:104DC000CF911F910F91FF90EF90DF90CF90BF9008
:104DD000AF909F908F907F906F905F904F903F909B
:104DE0002F9008950F931F93CF93DF938B01EA01C8
:104DF00086E493E00E94203781E095E00E9420370E
:104E0000F80180810E946137CE010E9462380E94C1
:104E1000FB07DF91CF911F910F910C940507CF9263
:104E2000DF92EF92FF920F931F93CF93DF93CDB753
:104E3000DEB728970FB6F894DEBF0FBECDBF8B014B
:104E40006A018E529E4F7C0162E473E00E94DA3860
:104E500061E075E0C7010E94DA38F801808189833A
:104E60001A8241E050E08E010F5F1F4FB801C70169
:104E70000E947D384AE0B801C6010E94D847F80177
:104E800001900020E9F73197AF01401B510BB801A9
:104E9000C7010E947D380E94FB07BC01C8010E9427
:104EA000BF06B801C7010E94E83889819A810E9433
:104EB000134728960FB6F894DEBF0FBECDBFDF9123
:104EC000CF911F910F91FF90EF90DF90CF900895B9
:104ED000FC01DB01AD59BF4F8C91882319F022E012
:104EE00030E002C020E030E0DB01AB59BF4F8C91D5
:104EF000882311F023E030E0DB01AC59BF4F8C91E7
:104F0000882311F024E030E0DB01AA59BF4F8C91D7
:104F1000882311F026E030E0DA018D919C91821710
:104F2000930721F091E0121613060CF090E0DA01DD
:104F30002D933C93992319F0A901CF0170CF0895C7
:104F40008F929F92AF92BF92CF92DF92EF92FF9299
:104F50000F931F93CF93DF93EC018EE393E00E94B6
:104F600020378BED94E00E9420376E0182E8C81A4A
:104F70008EEFD80AC6010E94580D0E942B4C4B019F
:104F80005C01FE01E55AFD4F608171818281938150
:104F90000E942B4C9B01AC01C501B4010E94194E2B
:104FA00042E00E9493378BEE94E00E9420377E010E
:104FB000E6E6EE1AEEEFFE0AC7010E94580D0E94C7
:104FC0002B4C4B015C01FE01E15AFD4F6081718168
:104FD000828193810E942B4C9B01AC01C501B401DD
:104FE0000E94194E42E00E9493378BEF94E00E949A
:104FF00020378E010A541E4FC8010E94580D0E948E
:105000002B4C4B015C01CD59DD4F688179818A8140
:105010009B810E942B4C9B01AC01C501B4010E94F5
:10502000194E42E00E9493370E94FB070E94050739
:105030008AE393E00E9420378BED94E00E942037B2
:10504000F601A08DB18D20893189428953890E9452
:105050007D4D0E946C378BEE94E00E942037F70163
:10506000A08DB18D20893189428953890E947D4D5F
:105070000E946C378BEF94E00E942037F801A08DDE
:10508000B18D20893189428953890E947D4D0E94CA
:105090006C370E94FB07DF91CF911F910F91FF901A
:1050A000EF90DF90CF90BF90AF909F908F900C9437
:1050B0000507CF93DF938091930B9091940B892BED
:1050C00051F483EC92E00E947E46EC0167DCD093C1
:1050D000940BC093930B8091930B9091940BDF9161
:1050E000CF910895CF93DF93EC012AEC30E04BECA5
:1050F00050E069EC70E0C9DA2EEC30E04FEC50E0A3
:105100006DEC70E0CE010C96C0DA24ED30E045ED98
:1051100050E063ED70E0CE014896B7DA28ED30E05C
:1051200049ED50E067ED70E0CE018496AEDA2EEDE9
:1051300030E04FED50E06DED70E0CE01C096DF91B4
:10514000CF91A3CACF93DF938091910B9091920B53
:10515000892BE9F48CE390E00E947E46EC01FC018F
:10516000CC96118210823C96E817F907D1F7198284
:1051700018821D861C86198E188E1DA21CA219AAC3
:1051800018AACE01AFDFD093920BC093910B809100
:10519000910B9091920BDF91CF910895EF92FF9236
:1051A0000F931F93CF93DF93162F072F7A0141158B
:1051B000510559F4862F0E94F10B31E020E0019750
:1051C00009F030E0C32FD22F26C04130510509F538
:1051D000262F663310F02AEC260F80917B00922F49
:1051E0009870877F892B80937B00277020642093A1
:1051F0007C0080917A00806480937A0080917A00AC
:1052000086FDFCCFC091780080917900D0E0D82B4A
:1052100002C0C0E0D0E082E0E816F10410F588E3B7
:1052200096E00E94203781E095E00E94203783E4D9
:1052300095E00E942037812F902F0E94623881E0F4
:1052400095E00E94203785E495E00E942037CE014A
:105250000E9462380E94FB070E94050780E090E0F0
:1052600002C081E090E0DF91CF911F910F91FF90FC
:10527000EF9008950F931F93CF93DF93FC0120814C
:10528000318121153105D9F1EC01822F0E94F10BFA
:1052900021E0892B09F420E02B876A85261729F065
:1052A0001E821F82188619860BC08E819F81A88559
:1052B000B9850196A11DB11D8E839F83A887B987EB
:1052C0000E811F81288539858A819B81AC81BD81B2
:1052D000081719072A073B0794F081E0682788819F
:1052E0000E94190C0990D881C02D0E94AC1840E092
:1052F00050E0BE01DF91CF911F910F914FCFDF9111
:10530000CF911F910F9108952F923F924F925F92EC
:105310006F927F928F929F92AF92BF92CF92DF92C5
:10532000EF92FF920F931F93CF93DF93CDB7DEB72A
:1053300060970FB6F894DEBF0FBECDBF988B8F87F6
:105340000E94F219EF85F889E751FE4F81E0409104
:10535000FE075091FF076091000870910108452BEE
:10536000462B472B09F480E080830E94F219EF85D9
:10537000F889E651FE4F81E0409102085091030800
:105380006091040870910508452B462B472B09F4C2
:1053900080E080830E94F219EF85F889E551FE4F85
:1053A00081E04091060850910708609108087091CB
:1053B0000908452B462B472B09F480E080830E9487
:1053C000F21980914E0890914F08A0915008B09129
:1053D0005108EF85F889E451FE4F80839183A283C1
:1053E000B3830E94F2198091520890915308A091C2
:1053F0005408B0915508EF85F889E051FE4F80833D
:105400009183A283B3830E94F219809156089091F0
:105410005708A0915808B0915908EF85F889EC50C9
:10542000FE4F80839183A283B3830E94F2198091FF
:10543000260890912708A0912808B0912908EF85A7
:10544000F889EC5FFD4F80839183A283B3830E9430
:10545000F21980912A0890912B08A0912C08B09104
:105460002D08EF85F889E85FFD4F80839183A28343
:10547000B3830E94F21980912E0890912F08A09179
:105480003008B0913108EF85F889E45FFD4F8083E3
:105490009183A283B3830E94F21980913608909180
:1054A0003708A0913808B0913908EF85F889E05F96
:1054B000FD4F80839183A283B3830E94F219809170
:1054C0003A0890913B08A0913C08B0913D08EF85C7
:1054D000F889EC5EFD4F80839183A283B3830E94A1
:1054E000F21980913E0890913F08A0914008B09138
:1054F0004108EF85F889E85EFD4F80839183A283A0
:10550000B3830E94F2198091D6079091D707A0919A
:10551000D807B091D907EF85F889E45EFD4F808305
:105520009183A283B3830E94F2198091DA0790914C
:10553000DB07A091DC07B091DD07EF85F889E05E1D
:10554000FD4F80839183A283B3830E94F2198091DF
:10555000DE079091DF07A091E007B091E107EF85AA
:10556000F889EC5DFD4F80839183A283B3830E9411
:10557000F219EF85F889E85DFD4F81E02091AE07D3
:105580003091AF072130310509F080E080830E941F
:10559000F219EF85F889E75DFD4F81E02091B207B0
:1055A0003091B3072130310509F080E080830E94FB
:1055B000F219EF85F889E65DFD4F81E02091B6078D
:1055C0003091B7072130310509F080E080830E94D7
:1055D000F219EF85F889EA5BFD4F81E0409186077B
:1055E000509187076091880770918907452B462B5A
:1055F000472B09F480E080830E94F219EF85F88937
:10560000E95BFD4F81E040918A0750918B076091E3
:105610008C0770918D07452B462B472B09F480E0B2
:1056200080830E94F219EF85F889E85BFD4F81E0E5
:1056300040918E0750918F0760919007709191076C
:10564000452B462B472B09F480E080830E94F219FA
:10565000EF85F889E75BFD4F81E040915E0850914E
:105660005F086091600870916108452B462B472BBD
:1056700009F480E080830E94F219EF85F889E65BE7
:10568000FD4F81E040916208509163086091640889
:1056900070916508452B462B472B09F480E08083E9
:1056A0000E94F219EF85F889E55BFD4F81E040919A
:1056B0006608509167086091680870916908452BE9
:1056C000462B472B09F480E080830E94F219EF8576
:1056D000F889E45BFD4F81E02091960730919707B0
:1056E0002130310509F080E080830E94F219EF85B6
:1056F000F889E35BFD4F81E020919A0730919B0789
:105700002130310509F080E080830E94F219EF8595
:10571000F889E25BFD4F81E020919E0730919F0761
:105720002130310509F080E080830E94F2198091D8
:105730005E0790915F07A0916007B0916107EF85C8
:10574000F889E15BFD4F80839183A283B3830E943C
:10575000F2198091620790916307A0916407B0915C
:105760006507EF85F889ED5AFD4F80839183A28309
:10577000B3830E94F2198091660790916707A09108
:105780006807B0916907EF85F889E95AFD4F808372
:105790009183A283B3830E94F219EF85F889E65CB6
:1057A000FD4F81E040916E0750916F076091700747
:1057B00070917107452B462B472B09F480E08083BD
:1057C0000E94F219EF85F889E55CFD4F81E0409178
:1057D0007207509173076091740770917507452B9C
:1057E000462B472B09F480E080830E94F219EF8555
:1057F000F889E45CFD4F81E040917607509177078E
:105800006091780770917907452B462B472B09F457
:1058100080E080830E94F219809166099091670967
:10582000A0916809B0916909EF85F889E55DFD4FA0
:1058300080839183A283B3830E94F21980916A09C5
:1058400090916B09A0916C09B0916D09EF85F88971
:10585000E15DFD4F80839183A283B3830E94F2199F
:1058600080916E0990916F09A0917009B0917109B2
:10587000EF85F889ED5CFD4F80839183A283B3832C
:105880000E94F219EF85F889E35CFD4F81E02091D9
:10589000C6073091C7072130310509F080E08083C9
:1058A000EF85F889E25CFD4F1082EF85F889E15CB5
:1058B000FD4F10820E94F219EF85F889E05CFD4FE0
:1058C00081E02091C2073091C3072130310509F0F2
:1058D00080E08083EF85F889EF5BFD4F1082EF85D4
:1058E000F889EE5BFD4F10820E94F219EF85F8896E
:1058F000ED5BFD4F81E02091E6073091E707213015
:10590000310509F080E080830E94F219EF85F88963
:10591000EC5BFD4F81E02091EA073091EB072130ED
:10592000310509F080E080830E94F219EF85F88943
:10593000EB5BFD4F81E02091EE073091EF072130C6
:10594000310509F080E080830E94F219EF85F88923
:10595000E95CFD4F81E02091760930917709213093
:10596000310509F080E080830E94F219EF85F88903
:10597000E85CFD4F81E020917A0930917B0921306C
:10598000310509F080E080830E94F219EF85F889E3
:10599000E75CFD4F81E020917E0930917F09213045
:1059A000310509F080E080830E94F2190F85188983
:1059B000055A1D4F80910E0890910F08A091100874
:1059C000B0911108F80180839183A283B3830E9470
:1059D000F219EF84F888F1EAEF1AFDEFFF0A8091DF
:1059E000120890911308A0911408B0911508F701BE
:1059F00080839183A283B3830E94F2198091160859
:105A000090911708A0911808B09119082F8538892E
:105A10002D593D4FF90180839183A283B383F8010F
:105A2000408151816281738114161506160617068E
:105A300044F041E050E060E070E0408351836283D5
:105A40007383F701408151816281738114161506B9
:105A50001606170644F041E050E060E070E0408335
:105A6000518362837383181619061A061B064CF0BD
:105A700081E090E0A0E0B0E0F90180839183A2830F
:105A8000B383D9018D909D90AD90BC90F701C080FB
:105A9000D180E280F380D8014D905D906D907C9034
:105AA0000E94FB07FC014082518262827382C482A1
:105AB000D582E682F78280869186A286B386EF85BC
:105AC000F889E95CFD4FB081B983EF85F889E55D20
:105AD000FD4F80819181A281B3814F8558894D5BB3
